:020000040800F2
:100000005030002055070008B5030008B70300086A
:10001000B9030008BB030008BD030008000000008E
:10002000000000000000000000000000BF03000806
:10003000C103000800000000737100083D050008BE
:100040006F0700086F0700086F0700086F070008B8
:100050006F0700086F0700086F0700086F070008A8
:100060006F0700086F0700086F0700086F07000898
:100070006F0700086F0700086F0700086F07000888
:100080006F0700086F0700086F0700086F07000878
:100090006F0700086F0700086F0700086F07000868
:1000A0006F0700086F0700086F0700086F07000858
:1000B0006F0700086F0700086F0700086F07000848
:1000C0006F0700086F0700086F0700086F07000838
:1000D0006F070008E50600086F0700086F070008B3
:1000E0006F0700086F0700086F0700086F07000818
:1000F0006F0700086F0700086F0700086F07000808
:100100006F0700086F0700086F0700086F070008F7
:100110006F0700086F0700086F0700086F070008E7
:100120006F0700086F0700086F0700086F070008D7
:1001300000F002F800F03CF80AA090E8000C8244BD
:100140008344AAF10107DA4501D100F031F8AFF29A
:10015000090EBAE80F0013F0010F18BFFB1A43F0A5
:100160000103184798720000B8720000103A24BFCB
:1001700078C878C1FAD8520724BF30C830C144BF0C
:1001800004680C607047000000230024002500264E
:10019000103A28BF78C1FBD8520728BF30C148BFEA
:1001A0000B607047002070471FB51FBD10B510BD14
:1001B00006F092FF1146FFF7F7FF00F088F806F00F
:1001C000B0FF03B4FFF7F2FF03BC00F033FA000006
:1001D0000EB5002502AC61A006F00CFF0023CDE9AE
:1001E000005401221946184606F061F9F3E70EB5EE
:1001F000002502AC5DA006F0FDFE0023CDE9005411
:1002000001221946184606F052F9F3E72DE9F04F9E
:100210008BB000F07AFF09A804F007FE012109AABB
:10022000084602F0CCF901F045F8544C2178491CFD
:10023000217001F043F800254FF00C0A4FF003083D
:10024000CDF808A0CDE906584FF0020B4C4ACDF886
:1002500014B00427CDE9007209AE4FF0800908966A
:100260002B46AFF275024648CDE9039545A1C43847
:1002700005F071F8CDF808A0CDE90658444ACDF84C
:1002800014B0CDE9007208960023AFF2BB024048DB
:10029000CDE903953FA1C43805F05DF801F00AF8F7
:1002A0002178491E11F0FF01217007D13C490988CE
:1002B00021B101F003F802F0F7FC01E000F0FEFFCD
:1002C00009A9002005F028F90BB0BDE8F08F30B582
:1002D0008BB000F041F94FF4A06000F05BFA4FF4EE
:1002E000E13000F0B1F909A801F0FFFF00F0E2FFF2
:1002F000224C2178491C217000F0E0FF002006AB61
:1003000009AA0321059083E8070080220C23CDE988
:100310000232244D04900346AFF20F12CDE90015CE
:1003200021A1A5F1C40005F016F800F0C3FF217863
:10033000491E11F0FF01217007D11949098821B127
:1003400000F0BCFF02F0B0FC01E000F0B7FF09A82C
:1003500002F0F1F90BB0002030BD00005461736B66
:10036000323A35363738390D0A0000005461736B64
:10037000313A30313233340D0A000000AC00002035
:10038000980400205461736B31207461736B00001A
:100390005C0700207461736B32207461736B000022
:1003A00070000020D40100207374617274207461A5
:1003B000736B00007047FEE7FEE7FEE7FEE770475D
:1003C000704700000CB500224C4800920192016871
:1003D00041F4803101604FF4A063016801F4003101
:1003E00001910099491C0091019911B90099994214
:1003F000F3D10168890333D50121019140490A688D
:1004000042F010020A600A6822F003020A600A68D9
:1004100042F002020A6041684160416841604168FF
:1004200041F480614160416821F47C114160416880
:1004300041F4E8114160016841F080710160016898
:100440008901FCD5416821F003014160416841F018
:10045000020141604168C1F381010229FAD10CBD5A
:1004600001920CBD254810B5016841F00101016001
:100470004168244A114041600168234A11400160EB
:10048000016821F480210160416821F4FE0141608E
:100490004FF41F018160FFF795FF1C494FF000608A
:1004A000086010BD154A10B55068194B10F00C01CA
:1004B000184803D0042901D0082901D0036012E0B4
:1004C0005168536801F470114FF0020413F4803F37
:1004D00004EB914102D053689B0301D50E4B00E021
:1004E0000B4B5943016051680A4AC1F30311121DB5
:1004F000515C0268CA40026010BD0000001002405A
:10050000002002400000FFF8FFFFF6FE08ED00E0CB
:1005100000127A000000002000093D0008B568467E
:1005200001F0E6FF08BD08B5684602F01AF808BDFC
:1005300008B56A46082105F06BFF08BD364810B5BE
:100540000078012807D101F061FF06F0BEF8BDE890
:10055000104001F066BF10BD10B56FF0040000F050
:100560005EF92E482E492F4B0068304CB0FBF1F25B
:10057000B0FBF1F01A702C4A1168B4FBF1F1414361
:1005800010684FF47A72B2FBF0F058804FF0E02020
:10059000026942F0020202614161016941F0010118
:1005A000016110BDF8B54FF0E02700247E691D49B8
:1005B000097800FB01F5684601F09AFFB969B8694E
:1005C0008842FCD002D2A1EB000102E0A6EB0002BF
:1005D00011440C440146AC42F1D3684601F0C1FF1E
:1005E000F8BD70B504460C48007878B11048007822
:1005F00060B90C4D6888844203D3B4FBF0F0FFF778
:1006000097FF6888B4FBF0F100FB11444FF47A7057
:100610006043BDE87040C5E7650000200000002091
:1006200000127A0014000020C873000840420F0036
:1006300064000020704743490A885206FCD5414AAD
:10064000C1B2121D11807047F0B5064687B0012176
:1006500044F2040000F0C9FC3A4D284600F024FAA8
:100660006815ADF8100003248DF812401820364F9D
:100670008DF8130004A9384600F03BF92815ADF8B1
:10068000100004208DF8130004A9384600F031F959
:1006900025208DF814008DF815408DF816400120A6
:1006A0008DF8170005A800F07AF80021ADF80810C1
:1006B000ADF804100C20ADF80610ADF80C10ADF834
:1006C0000A0000966946284600F01EFA012240F210
:1006D0002551284600F095FA0121284600F087FAB6
:1006E00007B0F0BD70B501F091FE164C40F22551F7
:1006F000204600F03DFBE0B1204600F0D2FA134A5C
:10070000C1B21088030414D444044FF0000304D58C
:100710000A290DD140F4004011E00D290DD0C0F39D
:100720000D040B4D401C80B229551080C72800D9FC
:100730001380BDE8704001F074BE40F4804010802A
:10074000F7E70000003801400008014018000020D1
:100750005C0900200948804709480047FEE7FEE79A
:10076000FEE7FEE7FEE7FEE7FEE7FEE7FEE7FEE761
:1007700004480549054A064B704700006504000817
:1007800031010008502A002050300020502C002059
:10079000502C00202849084328490860704730B58C
:1007A0000F23C27801780125F2B1244A126801F1C1
:1007B000E02102F4E062C2F5E062120AC2F1040430
:1007C000D3404278A24084781C401443220181F82F
:1007D0000024007800F01F018D404009800000F1E6
:1007E000E020C0F8005130BD01F01F0085404809ED
:1007F000800000F1E020C0F8805130BD104A114067
:1008000001430E48001F016070470C4A121D002969
:10081000116801D0014300E08143116070474FF03F
:10082000E0210428086903D020F004000861704723
:1008300040F00400FAE700000000FA050CED00E0CB
:1008400080FFFF1F8F4910B5884206D10121042087
:1008500000F0DDFB002104203BE08B49884206D1FB
:100860000121082000F0D3FB0021082031E0874956
:10087000884206D10121102000F0C9FB0021102080
:1008800027E08349884206D10121202000F0BFFBE8
:10089000002120201DE07F49884206D1012140200F
:1008A00000F0B5FB0021402013E07B49884206D1CF
:1008B0000121802000F0ABFB0021802009E0774976
:1008C00088420AD184150121204600F0A0FB0021B6
:1008D0002046BDE8104000F09ABB10BD10B50121C4
:1008E000084600F094FB0021BDE81040012000F014
:1008F0008EBBF0B5CC78002204F00F03E40601D5DE
:100900008C7823430C784FF00F0C14F0FF0F4FF04E
:10091000010E1BD005680E880EFA02F42640A6428E
:1009200010D196000CFA06F725EA070703FA06F538
:10093000CE783D43282E02D0482E02D002E04461FA
:1009400000E00461521C082AE5D305600A88FF2AEA
:100950001CD94468002202F108060EFA06F50E883A
:100960002E40AE420ED196000CFA06F7BC4303FAB5
:1009700006F7CE783C43282E00D14561CE78482E2C
:1009800000D10561521C082AE5D34460F0BD4FF642
:10099000FF710180022181700421C17070470246FD
:1009A000002092680A4200D001207047806880B21F
:1009B000704702460020D2680A4200D001207047EA
:1009C000C06880B2704701617047416170470AB1E9
:1009D0000161704741617047C160704741F48032E6
:1009E0008261816182618169806970472C4B10B599
:1009F0001A684FF68074224042EA001008431860DB
:100A000010BD2849C8617047F0B5254C002801DAAF
:100A1000E36900E06368450D2E0185B2C0F301571C
:100A2000B540C0F30342032F05D0C6020AD5032602
:100A30009640B34307E023F07062636823F070636D
:100A4000636002E0AB4343F0706201B12A430028C7
:100A500001DAE261F0BD6260F0BD10B58A0721F0F5
:100A600003040F49120F21440F238C6893409C43C9
:100A70008C608B68904003438B6010BD0949C1F8BE
:100A8000DC00704700080140000C014000100140EC
:100A90000014014000180140001C014000200140EA
:100AA0000000014000002042C44910B588420AD12C
:100AB00001218C03204600F0AAFA2046BDE8104030
:100AC000002100F0A4BABE49884202D101214C04A1
:100AD00010E0BC49884202D101218C040AE0BA49E5
:100AE000884202D10121CC0404E0B84988420AD1ED
:100AF00001210C05204600F093FA2046BDE8104085
:100B0000002100F08DBA10BD30B50446008A85B0D2
:100B10000D464CF6FF710840E98801432182A08907
:100B20004EF6F3110840A9882A8911436A890243C5
:100B30001143A181A08A4FF6FF410840A9890143D2
:100B4000A182684600F006FA9C48844201D10398CD
:100B500000E00298A189090400EBC00101EB00103C
:100B6000296801D5490000E08900B0FBF1F064225A
:100B7000B0FBF2F109010B096FF018056B4300EBB4
:100B80008300A3891D044FF0320306D503EBC00098
:100B9000B0FBF2F000F0070005E003EB0010B0FB43
:100BA000F2F000F00F000843208105B030BD4FF493
:100BB0001651016000218180C18001810C22428197
:100BC0008181704710B5028A4FF2FF031A400B88EB
:100BD0004C8823438C88C9880C43234313430382E6
:100BE00010BD0021018041808180C18070470029B3
:100BF000818902D041F4005101E021F4005181814A
:100C0000704710B5C1F3421301F01F040121A14048
:100C1000012B07D0022B07D01430002A026805D020
:100C20000A4304E00C30F8E71030F6E78A4302602C
:100C300010BD002A828A01D00A4300E08A438282E2
:100C40007047028A22F00F020282028A0A4302825D
:100C50007047828922F40062828182890A438281FC
:100C600070470029818902D041F0020101E021F0A2
:100C7000020181817047028A22F020020282028AE8
:100C80000A43028270470029018A02D041F4804160
:100C900001E021F4804101827047C1F308018180A5
:100CA00070478088C0F308007047818941F00101D6
:100CB00081817047028BD2B20283028B42EA01210A
:100CC00001837047028B02F47F420283028B0A4346
:100CD000028370470029818A02D041F0200101E09F
:100CE00021F02001818270470029818A02D041F0E1
:100CF000100101E021F01001818270470029818AF2
:100D000002D041F0080101E021F008018182704722
:100D10000029818902D041F4004101E0C1F30E01B4
:100D2000818170470029818A02D041F4006101E08D
:100D300021F4006181827047828A22F0040282825B
:100D4000828A0A43828270470029818A02D041F058
:100D5000020101E021F00201818270470246002079
:100D600012880A4200D001207047C94301807047B1
:100D700070B501F01F0501260024C1F3421306FAE5
:100D800005F2012B0FD0022B0FD0838A4FEA1121DD
:100D90000088134206FA01F600EA060001D000B10D
:100DA0000124204670BD8389F0E7038AEEE70A0A32
:100DB00001219140C9430180704700000038014083
:100DC0000044004000480040004C004000500040FB
:100DD000A548016841F0010101604168A34A114042
:100DE00041600168A24A11400160016821F480213C
:100DF0000160416821F4FE0141604FF41F018160F0
:100E0000704799490A6822F480320A600A6822F41D
:100E100080220A60B0F5803F07D0B0F5802F03D163
:100E2000086840F4A02008607047086840F48030EB
:100E3000F9E70346002059098B4A01290AD0022903
:100E40000AD0516A03F01F02012393400B4200D0E5
:100E5000012070471168F5E7116AF3E718B5002023
:100E60004FF4A06400903120FFF7E3FF0099491C84
:100E70000091A14201D00028F5D03120FFF7D9FF21
:100E8000002800D0012018BD774A116821F0F80130
:100E900041EAC00010607047764908607047724BA5
:100EA0005A68084322F47C12104358607047714915
:100EB000086670476C4A516821F003010143516094
:100EC00070476948406800F00C007047664A5168F6
:100ED00021F0F001014351607047634A516821F4E9
:100EE000E0610143516070475F4A516821F46051ED
:100EF00041EAC000506070475B4A0029517A01D036
:100F0000014300E08143517270475A49C1F8D8004B
:100F10007047554A516821F4404101435160704780
:100F20005149002281F8202081F82020012802D098
:100F3000042802D1052081F8200070474E4908603E
:100F4000704749490A6A02430A6270474A4944396C
:100F50000860704730B5444A5168484B11F00C01A5
:100F600003D0042901D0082901D0036012E05168A0
:100F7000536801F470114FF0020413F4803F04EB46
:100F8000914102D053689B0301D53D4B00E03B4BA0
:100F90005943016051680F2303EA1111394B5C5C1E
:100FA0000168E14041605468072505EA14241C5D8E
:100FB00021FA04F48460546805EAD4241B5DD94006
:100FC000C1605268032303EA92322E4B1B1F9A5CC6
:100FD000B1FBF2F1016130BD234A0029516901D012
:100FE000014300E08143516170471F4A0029916924
:100FF00001D0014300E08143916170471A4A002902
:10100000D16901D0014300E08143D1617047164AA4
:101010000029D16801D0014300E08143D1607047CD
:10102000114A0029116901D0014300E08143116197
:10103000704711494039086070470E49C8647047CD
:101040000949C87170470848416A41F0807141629E
:101050007047054A0146002092680A4200D00120EC
:101060007047014988727047001002400000FFF885
:10107000FFFFF6FE000042428004424200127A0066
:1010800000093D002400002000B585B06846FFF748
:1010900061FF019805B000BD10B5FFF7F5FF1149DC
:1010A0000A6842F080720A600F4900224A600A68AA
:1010B00042F001020A60BDE8104000F075B80A482D
:1010C0004068704710B50446FFF7DEFF0021074A6D
:1010D0000B4605F018FF02460B462046002105F09E
:1010E00012FF10BDFCED00E0001000E040420F00D8
:1010F00010B500F0DFF804461021694800F0D8F977
:101100002046BDE8104000F0D9B8664910B500206F
:101110000860FFF7C1FFBDE81040E9E7FEE770B5E2
:1011200005460C000ED075B100F0C4F8064610223A
:101130005B49284600F0C4FC304600F0BFF80020B0
:10114000208070BDFEE70A20088070BD70B50C00DD
:10115000054612D095B1102100F0A4FC102810D241
:1011600000F0A8F80646102229464D4800F0A8FCD9
:10117000304600F0A3F8002005E0FEE70A200880D2
:1011800070BD4FF47A70208070BDFFF798BF704734
:10119000020004D04348006810B1002102E0FEE7DD
:1011A0004FF4FA61118070473E490860704710B5EE
:1011B00000F08BF8183810BD10B500F086F8103824
:1011C00010BD00F082B8F0B50C0E0B0C0D0A002615
:1011D000354AD0F1FF378E411BD24FF6FF76D0F162
:1011E000FF378E410AD26FF07F45D0F1FF308D413D
:1011F00001D2105DF0BDD05C0830F0BDFF23D0F10E
:10120000FF308B4102D2505D1030F0BD505C183081
:10121000F0BD4FF6FF740023241A8B4111D26FF0FA
:101220007F440023241A8B4105D2000E40EA01209E
:10123000105C2030F0BD000C40EA0140105C28300A
:10124000F0BD0023D0F1FF048B4105D2000A40EA33
:101250000160105C3030F0BD105C3830F0BD08B17A
:1012600000F036B80820704708B100F031B81020FF
:10127000704708B100F02CB82020704700B550EA44
:1012800001020BD0C243521CCB4343F10003104078
:101290001940FFF798FFC0F13F0000BD402000BD9E
:1012A000240A002034000020D471000872B6704770
:1012B00062B67047EFF3108072B6704780F3108803
:1012C000704730BF704720BF7047B0FA80F070475A
:1012D00090FAA0F0B0FA80F0704790FAA0F0704752
:1012E000A0F14101192902D96138192801D801203A
:1012F000704700207047A0F14101192905D9203914
:10130000192902D93038092801D801207047002056
:1013100070476138192801D80120704700207047B4
:101320004138192801D80120704700207047303813
:10133000092801D80120704700207047303807285D
:1013400001D80120704700207047A0F13001092921
:1013500005D91139052902D96138052801D801209C
:10136000704700207047202803D0092801D00020B2
:1013700070470120704720280BD00D2809D00A287B
:1013800007D00C2805D0092803D00B2801D0002055
:1013900070470120704720385E2801D8012070472F
:1013A0000020704721385D2801D8012070470020B7
:1013B0007047A0F120015E2916D8202814D00D28EE
:1013C00012D00A2810D00C280ED009280CD00B28D7
:1013D0000AD021391A2907D320391A2904D33038E1
:1013E0000A2801D3012070470020704741B200292C
:1013F00001DB1F2803D97F2801D00020704701207E
:101400007047A0F14101192900D82030C0B27047BF
:10141000A0F16101192900D82038C0B2704700B589
:101420000B46FFF7F5FF02461846FFF7F1FF824231
:1014300001D1012000BD002000BD0000FD48FE4993
:101440000246C0E9001200218160C1600161416172
:101450008161C16101620163C162416200F14801C1
:101460008163C1634FF4806101644164F3480260A9
:10147000704710B500231C46641C41EA0323042C6A
:10148000FAD310F0030404D109E0521E00F8011B46
:10149000641C22B1042CF8D301E008C0121F042AF6
:1014A000FBD202E000F8011B521E002AFAD110BD47
:1014B0000A460021DDE730B4814202D930BC00F099
:1014C000C5BD10441144401E491E431A042B28D3A5
:1014D00000F0030301F00304A34201D1012400E062
:1014E0000024F4B1032B07D109E05B1E11F8014978
:1014F00000F801495BB2521E0AB1002BF5DAC01E9A
:10150000C91E04E051F8043940F80439121F042AB6
:10151000F8D2C01CC91C04E011F8013900F80139E7
:10152000521E002AF8D130BC704770B5034662B134
:101530006BB161B113441144012003F0030401F0C5
:101540000305AC4205D1012504E0012070BD002057
:1015500070BD0025DDB1BCB113F8015D11F8016D5E
:10156000B54200D00020521E641E0128F0D1002A8E
:10157000F1D109E053F8044D51F8045DAC4200D0BC
:101580000020121F01280AD1042AF3D207E013F821
:10159000014D11F8015DAC4200D00020521E01281F
:1015A000D6D1002AF3D170BD30B5C36BB3FBF2F4D2
:1015B00002FB14340CB1121B00E00022446C1144F5
:1015C0008C4201D2002030BD5D18611AC5631A44F7
:1015D0004164104630BD10B5B0FBF3F403FB1400BA
:1015E00000B1181AB2FBF3F403FB14240CB11B1B5B
:1015F00000E0002310441A44491E02FB010010BD04
:101600002DE9FC5F1F4614008A46834600D101ACD9
:101610000020884E2060FFF74DFE009053465A464A
:101620000121D6F84480F06BFFF7D5FF054642F262
:10163000E279404506D90098FFF740FEA5EB080087
:10164000206012E0524659463046FFF7ADFF0600D3
:10165000009807D0FFF732FE42F210703880304613
:10166000BDE8FC9FFFF72AFE2560A7F80090002048
:10167000F6E72DE9F04116460D460446FFF71AFE3F
:101680006368996B01B96B4BDF6B5C6CFFF716FEFF
:10169000012D06D9B7FBF5F005FB107000B1281A33
:1016A000241A42F2107030802046BDE8F0810A46CC
:1016B00001466048DDE7B8B1614A0260002242603D
:1016C0008260C260026142618261C26102628262C2
:1016D00042630263C26242628263C2630264426422
:1016E00042F210700880704742F21170FAE72DE95B
:1016F000FF4F89B08A46DDE91879044607B906AF7D
:101700000020386049462046FFF7D5FFB9F80010A1
:10171000A1F51C50103859D14848006890B10020FC
:10172000DFF810810290FFF7C5FD0590BAF10000C7
:101730000BD002460B98002613184048B3465B1E98
:10174000056848E042F2E7713EE0D8F83C100391AA
:101750000423C34645461A460C990398FFF73BFFFE
:101760000399049008440890DDE916230C99FFF7CB
:1017700032FF009000990498464608440290D8F839
:1017800044100191884261D90598FFF797FDDDE982
:1017900001103CE0A86B504506D1D5F840C00B992C
:1017A0008C4501D12E4618E0296C0144491E834224
:1017B00013D3824203D98B4201D98A4209D80598B2
:1017C000FFF77CFD42F27F71A9F800100DB0BDE873
:1017D000F08FAB46ED68002DDCD136B9C4E90EAA16
:1017E0000B9820640B982646606404231A46D8F8A8
:1017F0003C000C99FFF7EFFE0490D8F844100191DB
:10180000884206D90598FFF759FD01990498401AB6
:1018100034E0F06B0890DDE916230C99FFF7DBFE4E
:101820000090716C0191884210D90598FFF746FD30
:1018300008E00000340A00204845415038000020EC
:101840004E4F4E45DDE90001401A46E00C98042257
:101850008000014601904046FFF7A6FE039008B1C4
:1018600000201CE0D8F844400598FFF727FDBAF1A6
:10187000000F07D00198A04200D9001B386042F247
:10188000E27054E00298F6E7DDE916123046FFF701
:101890008BFE90B1039941F8280008F101000C99E2
:1018A00080468842F0D3A64220D1C4E902B55FEA5F
:1018B0000B0016D0CBF80C4015E0F56B746C059856
:1018C000FFF7FCFC0C98DDE91623A0EB0801284685
:1018D000FFF781FEA04200D9001B386042F2D870A9
:1018E00025E06E4804603DB1AC6005E07069C4E974
:1018F0000460746100B104616948C4E90006089895
:10190000A061009908980844401EE0610398206295
:101910000098A06217986063169820630C98E062A4
:101920000C9860620598FFF7C9FC42F21070A9F8A4
:1019300000004BE770B50D460446FFF7BBFC646A38
:10194000FFF7BCFC42F210702880204670BD70B5D5
:1019500015460446FFF7AEFC616A49B1E26A91425E
:101960000BD9FFF7ABFC42F295702880002070BDC8
:10197000FFF7A4FC42F2DE70F7E7491E6162226ABB
:1019800052F82140FFF79AFC42F21070288020465E
:1019900070BD70B514460E460546FFF78BFCEA6A2B
:1019A000911B491E42F295768A4202D96A6A8A429E
:1019B00004D9FFF783FC2680002070BD2A6A52F804
:1019C0002150FFF77BFC42F210702080284670BD4A
:1019D0002DE9F04116460D460446FFF76BFCE76A19
:1019E000626A8446BA4204D3FFF768FC42F2DD70B3
:1019F0001EE04FF0000E1346206A04E050F823105A
:101A0000A94205D05B1C9F42F8D8BEF1000F03D05D
:101A100050F8221040F82310D4E9080140F8215072
:101A2000606A401C60626046FFF748FC42F210703A
:101A300030803AE62DE9F04115460E4604464FF057
:101A4000FF37FFF737FC0246E16A606A884205D338
:101A50001046FFF733FC42F2DD701CE04FF0000C43
:101A600005E0236A53F82030B34205D0401C814280
:101A7000F7D8BCF1000F09D00C1A1046641EFFF70E
:101A80001DFC42F21070288020460EE61046FFF73B
:101A900015FC42F288702880384606E6380000209F
:101AA000504F4F4C002201E0401C521C18B10378EB
:101AB0000BB18A42F8D3104670474FF0FF31F1E77F
:101AC00030B5002811D089B10346002405E0491C37
:101AD00003F8015B641C4BB141B10D780DB1944228
:101AE000F5D3944201D20021197030BD002030BDE1
:101AF0004FF0FF32E4E730B5002816D0B1B1002A2C
:101B000013D0034601E05B1C10D01C78002CFAD1E6
:101B100004E0491C03F8015B641C3BB131B10D7852
:101B20000DB19442F5D30021197030BD002030BDB5
:101B30004FF0FF32DFE7F0B532B330B111B30446F6
:101B40000B46401C491C002508E0E9B108784042DA
:101B5000F0BD401C491C5B1C641C6D1C26781F7862
:101B6000BE4204D11EB110B109B19542F1D39542E4
:101B70000AD0F4B2FAB2944201D0B01AF0BD1EB14C
:101B80000028E2D00078F0BD0020F0BD4FF0FF3219
:101B9000D1E72DE9F0475FEA020A41D070B181B187
:101BA0000446461C0F464D1C0078FFF72AFC814670
:101BB0003878FFF726FC4FF0000811E079B3087879
:101BC00029E0007821E008F1010814F8010F6D1CEC
:101BD000761C7F1CFFF715FC81463878FFF711FC57
:101BE000814505D1217819B116B10DB1D045EAD39F
:101BF000D04515D04946814503D0A9EB0000BDE88A
:101C0000F0870800FBD026B13078BDE8F047FFF739
:101C1000F8BB25B12878FFF7F4FB4042EFE7FFE778
:101C20000020ECE74FF0FF32B3E710B5002812D0E8
:101C300081B1002303E0401C03F101030BD00478C1
:101C40001CB1944201D08B42F5D38B4202D2E1B257
:101C5000914200D0002010BD0A464FF0FF31E4E76A
:101C600030B5154604000FD071B1491EFFF71AFFB9
:101C700020180AD000E0401EA04202D00178A942FC
:101C8000F9D10178A94200D0002030BD0A464FF0BA
:101C9000FF31E5E730B5002803D00BB1044607E07B
:101CA000002030BD8D4200D122705B1E641CF8D034
:101CB0002578002DF5D0002BF4D130BD4FF0FF3347
:101CC000E8E72DE9F0418C46060032D0BCF1000F68
:101CD0002FD072B3501C01D0511C01E04FF0FF31E6
:101CE0000D4611463046FFF7DDFE044629466046A4
:101CF000FFF7D8FE050014D0A5421AD8301911D02C
:101D00001CEB05000ED0671B0024301980462A46C4
:101D10006146FFF710FF010006D00020641C28B1C7
:101D200006E03046BDE8F0810120F7E7BC42ECD97F
:101D300009B10020F6E74046F4E74FF0FF32C0E774
:101D40002DE9FF5F074611980E9D1446894600282D
:101D50006CD00026B246B9F1000F00D10126A01EBA
:101D6000232800D3012615B32846FFF714FB0128CA
:101D70001CD1302D1BD0A5F13000C1B20F98012825
:101D800002D0A5F1410001E0A5F16100C0B20A2C2A
:101D900002D8A14206D307E00A2903D3A4F10A011D
:101DA000884201D2012000E0002000B10126119AF2
:101DB00056BBB846012003E0B8FBF4F8401CC0B2A3
:101DC000A045F9D20399012900D0002100EB010CB4
:101DD000CC4518D84FF0000B4B46484500D3184669
:101DE0004DB1A9EB0000401A4B4610F0FF0F04D094
:101DF000302D04D001E00844C3B2002000E00120EF
:101E000082460EB901E001264B461099D01809B15F
:101E1000002101700021401E04E056B13F2200F86D
:101E20000129491C9942F8D39EB3002004B0BDE8B3
:101E3000F09F27B919B1039A012A16D024E0B7FB05
:101E4000F4F204FB1272D2B20A2A01D2303207E055
:101E5000DDF83CC0BCF1010F01D0373200E0573251
:101E6000B7FBF4F700F80129DBE75AEA0B0205D0CB
:101E7000BAF1000F08D05A1E914205D12D2200F868
:101E800001294FF0010BCCE7002DCAD000F8015911
:101E9000C7E7FFE71198C9E77FB50DF1200C9CE873
:101EA00070008DE878000023FFF74AFF04B070BD92
:101EB0002DE9FF411C46DDE90B650A9F002802DA87
:101EC0004042012300E00023CDE90047CDE902654F
:101ED000FFF736FF04B025E72DE9FF5F1E461546E4
:101EE0005FEA0109824601D10DF10809C9F800A095
:101EF0000E9808B903A80E9000210170BAF10000F5
:101F000003D0012D01D0242D01D900208EE70446F5
:101F1000007801E014F8010FFFF72DFA0128F9D03D
:101F200020782B2803D02D2805D0002007E04FF083
:101F3000000B641C04E0012E00D1641C01208346C8
:101F4000019425B1082D11D0102D22D112E0207856
:101F5000302801D00A251CE014F8010F582803D0BE
:101F6000782801D0082514E010250CE020783028CE
:101F70000ED00EE0207830280BD114F8010F58282D
:101F800001D0782805D16078FFF7DFF9012800D16A
:101F9000641C0026B046009627783846FFF7ABF958
:101FA000012824D13846FFF7C2F901280CD0384661
:101FB000FFF7AFF9012809D0373FF9B2A94216D28D
:101FC000B8F1000F04D00EE0303FF6E7573FF4E7DA
:101FD0001D4850F82500B04203D306FB05168E427B
:101FE00001D24FF001080098641C0028D4D0B8F149
:101FF000010F01D14FF0FF360198844202D0C9F899
:10200000004001E0C9F800A00E99304681F800B008
:102010000CE708B500230093FFF75EFF08BD1CB571
:1020200001AB00930123FFF757FF9DF804204FF009
:10203000004122B1884200D2414208461CBD88427C
:10204000FCD36FF000401CBDD4720008002800D102
:102050007047002900D17047002A00D170472DE950
:10206000F81F00F0030301F00304A34211D1C3F1F0
:10207000040303F00303012B1DD3012A00D2F2E075
:1020800011F8014B00F8014BA3F10103A2F1010289
:10209000F1E700F0010301F00104A34200D094E055
:1020A000012B44D311F8014B00F8014BA3F10103BC
:1020B000A2F10102F4E7B2F5B47F26D3B1E8F81F2C
:1020C000A0E8F81FB1E8F81FA0E8F81FB1E8F81F72
:1020D000A0E8F81FB1E8F81FA0E8F81FB1E8F81F62
:1020E000A0E8F81FB1E8F81FA0E8F81FB1E8F81F52
:1020F000A0E8F81FB1E8F81FA0E8F81FB1E8F81F42
:10210000A0E8F81FA2F5B472D5E7282A06D3B1E8F3
:10211000F81FA0E8F81FA2F12802F6E7042A06D368
:1021200051F8043B40F8043BA2F10402F6E7202AF0
:1021300042D331F8023B20F8023B31F8023B20F851
:10214000023B31F8023B20F8023B31F8023B20F819
:10215000023B31F8023B20F8023B31F8023B20F809
:10216000023B31F8023B20F8023B31F8023B20F8F9
:10217000023B31F8023B20F8023B31F8023B20F8E9
:10218000023B31F8023B20F8023B31F8023B20F8D9
:10219000023B31F8023B20F8023B31F8023B20F8C9
:1021A000023B31F8023B20F8023B31F8023B20F8B9
:1021B000023BA2F12002BAE7022A06D331F8023B21
:1021C00020F8023BA2F10202F6E7102A42D311F8EE
:1021D000013B00F8013B11F8013B00F8013B11F80D
:1021E000013B00F8013B11F8013B00F8013B11F8FD
:1021F000013B00F8013B11F8013B00F8013B11F8ED
:10220000013B00F8013B11F8013B00F8013B11F8DC
:10221000013B00F8013B11F8013B00F8013B11F8CC
:10222000013B00F8013B11F8013B00F8013B11F8BC
:10223000013B00F8013B11F8013B00F8013B11F8AC
:10224000013B00F8013B11F8013B00F8013BA2F112
:102250001002BAE7012A06D311F8013B00F8013B4E
:10226000A2F10102F6E7BDE8F81F704770470000D1
:10227000F64CF74DFFF71EF82168491C21602968CC
:10228000491C2960FFF71AF804F078FDF2E700B561
:10229000EE4A89B0002111600B2205910691CDE92B
:1022A0000720EC48EC4AED4B006812681B6802926C
:1022B000CDE903013F20CDE900030023AFF24F0237
:1022C000E7A1EC4803F047F809B000BD0020EA4B55
:1022D000024600EB400103EB8101401C0A810A60C9
:1022E000C0B24A604028F4D3704710B5044604F0E9
:1022F0004BFDE24800220A210270E1480270E148E9
:102300000270E1480260E1480260E1480270E14881
:102310000270E1480270E1480260E1480260E14871
:102320000260E1480270E1480068B0FBF1F0E0496A
:102330000860E049086830B1DF48006818B10968F2
:1023400004C0491EFCD1DD480260DD480260DD4862
:102350000260DD480260DD480260DD480260DD4861
:102360000260DD48027001F02BFFFFF7AFFF20464F
:1023700001F08DF82088002847D1204601F0D9FAD5
:102380002088002841D1204601F0FCFA208800284E
:102390003BD1204601F0FDFE2088002835D12046A3
:1023A00002F03AFA208800282FD1204602F0E2FC01
:1023B0002088002829D1204603F058FE20880028D4
:1023C00023D1204601F062F9208800281DD1204643
:1023D000FFF75DFF2088002817D1204603F046FF55
:1023E0002088002811D1204602F04FFE20880028C6
:1023F0000BD1204604F032FC2088002805D100F0E3
:10240000A5FCBDE81040FFF731BF10BD9C48007827
:10241000012805D199490878FA2801D2401C087092
:102420007047974810B5007801282BD1FEF742FF7E
:1024300092490446087800B3401E10F0FF0008706F
:102440001BD190480078C0B901F0C3FE91490870D3
:10245000894900EB400051F820008C4908608A4906
:102460000968884209D050F8901F491C01609B48B8
:102470000168491C016004F077FE2046BDE8104069
:10248000FEF71CBF10BD7D4810B50078002824D190
:102490007C480078002820D1FEF70CFF044601F0AC
:1024A00098FE7C490870744900EB400051F8200008
:1024B0007649086074490968884209D050F8901F2D
:1024C000491C016085480168491C016004F047FE11
:1024D0002046BDE81040FEF7F1BE10BD694810B5BA
:1024E0000078012803D1FEF7EAFD6C49086010BDB1
:1024F00070B504466148007810B146F6625019E0A4
:102500005F480078012802D045F6896012E05D4DF1
:102510002878FA2802D345F209200BE0FEF7CAFE1C
:1025200006462878401C2870FFF7D8FF3046FEF793
:10253000C5FE0020208070BD524810B500780028EC
:102540000ED1FEF7BCFD55490968401A54490A6886
:10255000824200D2086053490A68824200D2086071
:1025600010BD70B504464548007810B146F6655078
:1025700023E043480078012802D045F689601CE03A
:10258000404E307870B1FEF795FE05463078401E1B
:1025900010F0FF00307008D02846FEF78FFE46F698
:1025A00063500AE046F6645007E0FFF7C5FF28468F
:1025B000FEF784FEFFF767FF0020208070BD2DE945
:1025C000F04116460C460746FEF774FE36490025D4
:1025D000012F01D00D7001E001220A7034490CB1C5
:1025E0000C6005E0314A0A231268B2FBF3F20A607C
:1025F000FEF764FE3580BDE8F08110B50189002941
:1026000014D0012912D00024022907D0D0E90013E8
:10261000CA681461C1E90343D96005E0D0E900123A
:10262000C1E90342C2E90314C0E9002110BD70B53D
:1026300004461248007810B148F2D14079E01148C0
:10264000007810B146F6635073E049E06000002066
:10265000C40000207C7300087873000874730008BD
:1026600075432F4F532D4949492049646C652054C7
:1026700061736B000C230020A02400206400002064
:1026800065000020AC0000200401002008010020AB
:10269000920000209300002094000020A000002061
:1026A000A4000020A8000020B4000020C873000887
:1026B000B0000020A07300089C73000844000020B4
:1026C000480000204C000020500000205400002052
:1026D000580000205C000020E2000020D80000200C
:1026E000F7480078012802D046F67B1021E0FEF77B
:1026F000E1FD0646F348F449007800EB400001EBA9
:1027000080052889022805D23046FEF7D7FD46F617
:102710007A100EE02846FFF770FF2868416D09B96E
:10272000EA49096881653046FEF7C8FDFFF7ABFE50
:102730000020208070BD70B5E54D0446287818B1A2
:1027400045F68A60208070BD01F043FDE1490870C4
:10275000DC490870DC4900EB400051F82000DE49FC
:102760000860DE4908600120287004F0E7FC43F6A9
:102770009920E7E70021018047F25C60704738B19B
:102780004268C1F8C02081688968096AC1617047E0
:1027900091F83400022803D0072803D0D0A002E02B
:1027A000D0A000E0D1A0C1F8C000704730B58A6861
:1027B000002592F8374002891AB1521C0281026842
:1027C0000BE0012202814D600D60016014E093680E
:1027D00093F83730A34203D85268002AF7D107E0B4
:1027E00032B1136853B1C1E900325960116030BD94
:1027F0004D6042680A605160416030BD1160C1E9BE
:102800000052016030BD10B5C28700242346016329
:102810000EE04B6041F8103B641C41F8103BA4B241
:1028200041F80C3C21F8083C41F8043C41F8180CF4
:102830009442EED310BD70B5044690F83700A2491B
:1028400000EB400001EB8001D4E90320002540B1FA
:102850000B895B1E0B81C26092B110612561E5603E
:1028600070BD2AB10889401E088115610A60F5E72C
:102870000D810D604D6094F8370001F0C8FCEDE764
:102880004860EBE738B50446022531B16B460222B9
:1028900003F025FDBDF8000028B184F8365020462D
:1028A000FFF7C9FF38BD032084F83600F7E72DE9AC
:1028B000F0418A4D07460C4628680026194680F8E4
:1028C000342080F83560FFF7DDFF64B1FC6004F16F
:1028D0000806012239462868FFF795FF3946304639
:1028E000FFF764FF02E02868C68706632046296870
:1028F000BDE8F04143E710B502890024012A0BD05E
:102900000A6862B14B6873B153601A600289521E43
:1029100002814C600C6010BD04604460F6E74A68B8
:1029200014600260F2E754604260EFE770B506465B
:10293000C58F046B07E0E06821460830FFF7DBFF36
:102940006D1EADB22034002DF5D10020F08730632C
:1029500070BD10B50B6BC98F08E0DC68844202D1F2
:10296000DA61186110BD491E89B220330029F4D103
:1029700010BD90F83710544A01EB410102EB810180
:1029800000230A8942B1521C0A810A68C0E9032364
:102990000A6810610860704701220A81C360036100
:1029A00008604860704790F83710474A01EB4101D2
:1029B00002EB810100230A893AB1521C0A81C360EB
:1029C0004A680261D0604860704701220A81C36092
:1029D00003610860F7E710B5044690F8370001F08E
:1029E00008FC384994F8370009788842204602D11B
:1029F000BDE81040D7E7BDE81040BAE710B504467F
:102A000003F05EFB94F83610490703D42046BDE876
:102A10001040E0E710BD2DE9F041064691F8360080
:102A200000270C4615464FF00108082835D2DFE88C
:102A300000F03434040434341A1A94F834000328AF
:102A400003D121463046FFF784FFE765A4F86070A4
:102A5000256416B12046FFF769FF2046FFF7CEFF39
:102A600084F8367015E094F83400032803D1214629
:102A70003046FFF76EFFE765A4F86070256416B175
:102A80002046FFF753FF204603F01AFB042084F88A
:102A9000360084F8358084F83470ACE516A2C1F8AD
:102AA000C020816811B18968096A00E012A1C16182
:102AB000704770B580F83710C58F046B2EE00000AA
:102AC000B400002092000020A0240020B0000020CC
:102AD0006500002093000020080100200401002070
:102AE000200000005461736B205100005461736B2F
:102AF0002053656D0000000020000000E668308A69
:102B00000836012807D921463046FFF7F4FE214652
:102B10003046FFF74BFE6D1EADB22034002DEDD1D7
:102B200070BD002101604160018170470289521C23
:102B3000028102684A6000220A60026802B11160E4
:102B400001600289012A00D14160704710B50B6B0A
:102B5000C98F08E0DC68844202D1DA61186110BDD7
:102B6000491E89B220330029F4D110BD2DE9F0416E
:102B70000C4691F83610002502261746082933D254
:102B8000DFE801F0323204043232191994F83410BB
:102B9000032903D13A462146FFF7D8FFE565A4F89B
:102BA000605020462764FFF7C1FE2046FFF726FF4E
:102BB00084F8365014E094F83410032903D13A46CF
:102BC0002146FFF7C3FFE565A4F86050204627645F
:102BD00003F076FA2046FFF7A9FE042084F83600B9
:102BE00084F8356084F8345005E570B50C6B049DAD
:102BF000C98F0AE0E668864204D1C4E9040223834F
:102C0000E56170BD491E89B220340029F2D170BD42
:102C1000F8B50C46054691F83610002606980829A6
:102C20003BD2DFE801F03A3A04043A3A202094F823
:102C30003410032911D0E265A4F86030206435B166
:102C40002046FFF773FE21462846FFF727FF204660
:102C5000FFF7D4FE84F836601BE00090214628463A
:102C6000FFF7C3FFEBE794F83410032916D0E265B1
:102C7000A4F860302064204603F022FA35B12046E3
:102C8000FFF754FE21462846FFF708FF042084F88A
:102C9000360084F8356084F83460F8BD0090214631
:102CA0002846FFF7A2FFE6E710B5FEF703FB1F4932
:102CB0000446002008701F481D49016051F8900F1C
:102CC000401C08601C490868401C086004F047FA72
:102CD0002046BDE81040FEF7F1BA70B5054617482A
:102CE0000078012820D1FEF7E5FA04462868B0B143
:102CF0001349884213D0816D11B1491E81650ED1EF
:102D0000288902280BD30F48007840B92846FFF7DE
:102D100074FC2868416D09B90B4909688165204632
:102D2000BDE87040FEF7CABA70BD000093000020F5
:102D3000D023002008010020D8000020B40000208B
:102D40000C230020AC000020B000002070470000E1
:102D50000023FF4AFDA14361C161116819B181617E
:102D60004861106070478361FBE72DE9F04104463C
:102D7000F84890460F4600781D4610B142F6E160D3
:102D800025E014B3FEF796FAF34E3178491C317002
:102D9000FEF794FAF148C4E900070027C4E9088760
:102DA00004F10800FFF7BDFE2046FFF7D1FFEC4914
:102DB0000888401C0880FEF77DFA3178491E317082
:102DC000FEF77CFA2F80BDE8F08145F6C3501880ED
:102DD000F9E7E44902C0E4A102C000218161FFF7E4
:102DE000A0BED0E9052100232AB151B191614A6109
:102DF000836143617047D64A116001B14B618361C1
:102E000070479361F5E72DE9F05F8046D14814469D
:102E10008946007810B143F2C92013E0B8F1000FE1
:102E200006D0080007D0012905D045F6256009E045
:102E300045F6C35006E0C949D8F80000884205D0DD
:102E400045F6C45010800020BDE8F09FFEF732FA2E
:102E5000C14F3978491C3970FEF730FAB8F8105074
:102E60005FEA0900DFF8F8B2DFF8049308F108061A
:102E7000AA460AD0012842D0FEF71CFA3978491E2A
:102E800011F0FF0139705DD064E05FEA0A0008D0FC
:102E9000FEF710FA3978491E11F0FF0139701FD082
:102EA00026E04046FFF79DFFBBF800104046491E54
:102EB000ABF80010FFF78DFFFEF7FCF93978491EDB
:102EC00011F0FF01397007D1B9F8001021B1FEF7F8
:102ED000F5F9FFF7E9FE01E0FEF7F0F900200BE05D
:102EE000B9F8001021B1FEF7E9F9FFF7DDFE01E0C6
:102EF000FEF7E4F947F25F1020805046A4E7FEF7A2
:102F0000DEF8814607E030684A4681684046FFF7B0
:102F10002DFE6D1EADB2002DF5D14046FFF761FFCD
:102F2000BBF800104046491EABF80010FFF751FFF8
:102F3000FEF7C0F93978491E3970FEF7BFF9FFF77F
:102F4000A2FACBE7B9F8001021B1FEF7B7F9FFF705
:102F5000ABFE01E0FEF7B2F945F62560CCE730B4F0
:102F6000844C029D246844F8802F002223816260F3
:102F70002B4630BC0122FFF79ABC2DE9FF4F0546D6
:102F80008BB07448DDE9186400781F46894610B19B
:102F900046F2AE1007E1ADB148F20101781A8F4256
:102FA00029D019DC40F20111A7F201108F4222D082
:102FB0000BDC012F1FD0022F1DD0042F1BD0082F98
:102FC00016D118E045F6C350EDE0012813D00328D0
:102FD00011D007280CD10EE0B0F5807F0BD0F4DDC6
:102FE000A0F58070013806D0022804D0062802D04F
:102FF00045F62560D7E059492868884202D045F651
:10300000C450D0E0F80501D5012000E00020804642
:103010004FF0000B0EB1C6F800B007F00F01099198
:10302000FEF748F909994C4A4FF0010E012934D0B6
:10303000022938D0042902D008296ED123E0296A58
:1030400001EA090ACA4524D011E021EA0A0135E063
:10305000484A1268C2F884A00EB1696A3160FEF76E
:103060002DF9A4F800B050460FB0BDE8F08F390438
:1030700026D5FEF723F946F2B01094E0FEF71EF9CC
:1030800046F663508FE0296A01EA09035FEA030A02
:10309000EDD0B8F1000FDBD0D7E7296A29EA010AA1
:1030A000CA4506D0E3E7296A29EA01035FEA030A71
:1030B000DDD0B8F1000FCBD041EA0A012962C7E7A1
:1030C00011780029DAD1924682F800E0FEF7F6F88E
:1030D0000D9800903B464A46294601A8FFF73FFF5E
:1030E000FEF7E8F89AF80010491E8AF80010FEF77B
:1030F000E5F8FFF7C8F9FEF7DDF81E4B1A6892F8FD
:10310000351059B1012937D0022945D003293BD0C8
:10311000FEF7D4F846F62E6045E014E00EB1116CCF
:103120003160A4F800B019685F46B8F1000FD1F81B
:10313000846041D0099901293BD0022939D0042962
:1031400034D0082932D0FEF7B9F851E7200000004A
:103150007C00002064000020AC000020464C414769
:10316000800000204E4F4E453F464C414700000036
:1031700070000020040100200EB1116C3160FEF7D8
:103180009DF846F2A9100EE00EB1C6F800B0FEF7A9
:1031900095F847F2D92006E00EB1116C3160FEF7C8
:1031A0008DF845F6C250208000205DE7296AB143C2
:1031B00001E0296A31432962FEF780F82780304612
:1031C00052E72DE9F05F8046B4480F461446007878
:1031D00010B146F2AA1012E0B8F1000F0DD04FF472
:1031E000807A77B157450CD0B7F5004F09D0B7F5C5
:1031F000014F06D045F6256001E045F6C35010802A
:1032000021E0A749D8F80000884202D045F6C45012
:10321000F5E7FEF74FF8B8F8101008F1080569B1A6
:10322000DFF8809299F80020521C89F80020FEF700
:1032300045F80026FDF743FF834610E0FEF73EF811
:1032400046F2AB1020800020FEE528685A468168CF
:103250004046FFF7E0FB761CB6B2574502D12889FD
:103260000028F2D1FEF726F899F80020521E89F8BE
:103270000020FEF723F8380401D4FFF704F90020FA
:1032800020803046E0E570B504468448007820B1DF
:1032900046F2AE102080002070BDFEF70BF8824988
:1032A0000968D1F88450FEF709F8002020802846EC
:1032B00070BD70B50025C0F8841080F8355080F8D6
:1032C00034500446026490F8360008280ED2DFE835
:1032D00000F00D0D04040D0D0A0A2046FFF78EFBC9
:1032E00084F8365002E0042084F836002046BDE819
:1032F0007040FFF71BBB2DE9F0479A4690460D46FC
:103300000446089EFDF7D6FF01465FEA080022D07A
:10331000012807D0B0F5004F1DD06FF4004218EB24
:10332000020F12D1206AA843C4E9080A208A04F1D6
:1033300008054FF0000988B15A4F3878401C3870A2
:103340000846FDF7BBFF2D6841E00846FDF7B6FFD4
:1033500045F625605FE0206A2843E5E70846FDF76B
:10336000ADFFA6F80090206ABDE8F08790F88810BD
:103370006D6801F00F01012918D002291ED004291F
:103380000AD008290DD0FDF795FF3978491E11F0B4
:10339000FF01397033D03AE0216AD0F88020114023
:1033A00009E0216AD0F8802011400BE0D0F88010AD
:1033B000236A0A4699438A4205D007E0D0F8801074
:1033C000226A914311B15246FFF773FF15B1A86805
:1033D0000028CBD1FDF76EFF3978491E3970FDF713
:1033E0006DFF5FEA084001D4FFF74DF8FDF762FF7B
:1033F000246AFDF763FFA6F800902046B4E72B4946
:10340000098821B1FDF75AFFFFF74EFC01E0FDF7F7
:1034100055FF43F6FF2030800020A5E72DE9FF414E
:103420001546884606001C460DD07DB1012D0DD0F5
:10343000B5F5004F0AD06FF40040C54206D045F6FE
:103440002560188019E045F6C350FAE7144F30683C
:10345000B84202D045F6C450F3E7FDF730FE03460C
:103460000E48007860B1CDE90234CDE90085002333
:103470001A463146384600F01FF8002004B0A2E496
:103480002A46414630460094FFF735FFF6E7084AE2
:1034900000211160074A11800180704764000020FC
:1034A000464C4147AC000020040100207000002081
:1034B0007C000020800000202DE9F05F1E46DDE941
:1034C0000AAB90460F4681460D9CFDF7F3FEA049DE
:1034D000A04A05460888128890422BD2401C80B230
:1034E00008809D490A88824200D208809B4A106861
:1034F000C0F80090C0E902780682C0F814A0A0F8D5
:1035000018B00C99C1614068106095480121018193
:10351000944901604160002000F06BFE9248007801
:1035200008B192490870002020802846BDE8F05F6D
:10353000FDF7C4BE8E480188491C018044F25360E7
:10354000F2E73EB58B4C8C4A02AB206801688D1ABD
:10355000914245D015DC894A89182DD0884A8918AE
:1035600022D0884A891832D0874AD14208D1C1690D
:10357000CDE90013038B028AC168806802F086F9E6
:103580003EBD824969181DD0814A891823D0814ADD
:10359000D142F5D1C169CDE90013038B028AC1681C
:1035A000806801F08FF83EBD0093028BC3694169CA
:1035B0008068FFF7A0FE3EBD018BC269806801F004
:1035C00014FB3EBD8068194602F049FA3EBD018BEE
:1035D000C269806822E08068194602F0B6FC3EBDF0
:1035E00062485F49007800EB400001EB8000FFF784
:1035F00074FB206802AB0021C269674802F092FBAD
:1036000066490868401E0860E9D16548006808609E
:10361000FDF755FD024602AB0021624802F082FB35
:103620003EBD614F4A4C0025DFF84881FDF742FE60
:1036300006462088E8B13046FDF740FEFDF73FFD25
:103640000646FFF77EFFFDF73AFD3968801B814291
:1036500000D23860FDF72EFED8F800205268C8F876
:1036600000202188491E2180FDF728FE002DDDD095
:10367000D9E73B49002008810860486000F0C7FD99
:103680003046FDF71BFEFEF7FEFECCE7F0B53849ED
:10369000464D89B000240C80296831B12D4E318807
:1036A000022905D244F2546135E044F2526132E01D
:1036B0003D4900233E4F0C60296801F1200210E0D3
:1036C00041F8087B5B1C41F8084B9BB241F8044C65
:1036D00021F8104B41F80C4C21F8084C41F81C2CF7
:1036E0002032B6F800C06345EAD32A6841F81C2CA2
:1036F0001A490A601F490A6015492E4A0C8016496A
:103700000C80116851B12C492C4D0B682D68AB42CF
:1037100007D244F25661018009B0F0BD44F2556110
:10372000F9E7032305940694CDE907300868244996
:10373000126800230968CDE903040094CDE9012152
:10374000AFF221121FA1074801F005FEE4E70000D7
:10375000700000206C7300087200002068000020D8
:10376000A0240020D02300209200002094000020FC
:10377000740000206C0000205449434BADBAB2BE27
:103780000DF90BFAF2F8F7FF0006F6FF00F7FDF768
:1037900000FFEFFF03FE0FFE642800200001002061
:1037A000FC000020282900207800002084730008F5
:1037B0004E4F4E458C73000894730008C473000884
:1037C0009073000875432F4F532D494949204953A1
:1037D00052205175657565205461736B00000000BF
:1037E000574B00228261196819B1C1618861186064
:1037F0007047C261FBE72DE9F05F04465148DDE9FF
:103800000A750078984616468B4610B145F2B960A5
:1038100014E045F2BB615EB1B8F1020F01D2481C61
:103820000CE045F2C160042F08D316F0030F02D05C
:103830002980BDE8F09F17F0030F01D02880F8E73A
:10384000A8F101018BB23246002104E0D0191060CA
:10385000491C024689B29942F8D34FF0000AC2F8D7
:1038600000A0FDF727FDDFF8E09099F80010491C53
:1038700089F80010FDF722FD344884E84108E6602D
:10388000A4F81480A4F8128027822046FFF7A8FF2E
:103890002F480188491C0180FDF70CFD99F80010A4
:1038A000491E89F80010FDF709FDA5F800A0C0E742
:1038B00070B504000D460ED0FDF7FCFCA18A71B175
:1038C000E668491E3268E260A182FDF7F7FC00203D
:1038D0002880304670BD45F2BF60088004E0FDF7E7
:1038E000EDFC45F2C2602880002070BD70B50E4628
:1038F000040015460BD06EB1FDF7DCFCA18A628A8C
:1039000091420BD3FDF7DAFC45F2BA600FE045F2C5
:10391000BF6001E045F2BE60108070BDE1683160BB
:10392000E660A18A491CA182FDF7C8FC002028801E
:1039300070BD034A00211160054A11800180704763
:103940008400002064000020AC0000204D454D2084
:103950008800002010B5491E8CB2002100F1100231
:103960000B4608E0E0E80223491C20F8083B89B236
:1039700040F8043C1032A142F4D303604360038159
:10398000C36010BD70B5524D0446286880B1514ED9
:10399000308880B181B22868FFF7DCFF4E48296883
:1039A0000160318881800021C1800181218070BD4A
:1039B00045F21E7001E045F21D70208070BD10B50B
:1039C000428992B1444903680C681C6043680B60EB
:1039D000CB8844891B1BCB808B88448923448B80F4
:1039E00000214181818101604160104610BD01814B
:1039F000002141818181016041607047F0B54489B7
:103A00000025CCB14468278966680F800AB1E16857
:103A1000116021684160B9B14189491E41812E4838
:103A20000168216004608188491C8180C188491E29
:103A3000C1801D803046F0BD0D8002B1156046F298
:103A4000925018800020F0BD05604581E7E7F0B591
:103A50004489DDE905E60589AC4202D346F293507C
:103A60001EE01D4DAF88CFB12C687F1ED4F800C07A
:103A7000C5F800C0AF80EF887F1CBFB2EF80B5F8FB
:103A800008C0BC4500D22F814789002557B1DB060D
:103A90000CD403681C60256004600AE045F21D70C8
:103AA0003080F0BD04600123446004E0436823607B
:103AB000446043895B1C438187899BB29F4200D24B
:103AC000838161602281C4F80CE03580F0BD000084
:103AD000AC7300086E730008942400200023FD4A94
:103AE000FBA14361C161116819B181614861106036
:103AF00070478361FBE72DE9F0410446F6480F4625
:103B00001546007810B142F6E1602AE03CB3FDF7BB
:103B1000D1FBF24E3178491C3170FDF7CFFBF048F4
:103B2000C4E900070027276284F825704020A762B7
:103B300084F8240004F10800FEF7F3FF2046FFF7A5
:103B4000CDFFE8490888401C0880FDF7B3FB3178B9
:103B5000491E3170FDF7B2FB2F80BDE8F08145F6BC
:103B6000C3501080F9E7E04902C0E0A102C0002183
:103B700081614177016240210177FEF7D2BFD0E930
:103B8000052100232AB151B191614A6183614361EA
:103B90007047D04A116001B14B61836170479361F6
:103BA000F5E72DE9F05F0746CB480E46144600784E
:103BB00010B143F2C92008E02FB146B1012E06D062
:103BC00045F6256001E045F6C3501080A4E0C449E5
:103BD0003868884202D045F6C450F6E7FDF76AFB24
:103BE000DFF8F89299F80020521C89F80020FDF7C0
:103BF00065FB3D8ADFF8FCA207F10808AB4666B119
:103C0000012E48D0FDF756FB99F80010491E11F01F
:103C1000FF0189F8001079D0A9E0BBF1000F0AD0AC
:103C2000FDF748FB99F80010491E11F0FF0189F8D3
:103C3000001020D027E03846FFF7A1FFA9480188EF
:103C4000491E01803846FFF78EFFFDF733FB99F8D8
:103C50000010491E11F0FF0189F8001007D1BAF8D1
:103C6000001021B1FDF72AFBFFF71EF801E0FDF778
:103C700025FB00200BE0BAF8001021B1FDF71EFB78
:103C8000FFF712F801E0FDF719FB47F25F10208003
:103C90005846BDE8F09F3E6A16B396F8370097F88D
:103CA000241088421CD096F8360008281CD2DFE881
:103CB00000F004111414111114143046FEF7BBFD6A
:103CC00097F8240086F8370000F093FA3046FEF7A4
:103CD0006AFE05E086F8371002E03046FEF7E9FE9E
:103CE000FDF7EDF9064622E0FDF7E4FA99F8001039
:103CF000491E11F0FF0189F8001008D1BAF8001030
:103D000029B1FDF7DBFAFEF7CFFF02E027E0FDF770
:103D1000D5FA46F62D6020800020BAE7D8F80000DA
:103D2000324681683846FEF721FF6D1EADB2002D88
:103D3000F4D13846FFF723FF6A480188491E018005
:103D40003846FFF710FFFDF7B5FA99F80020521E2C
:103D500089F80020FDF7B2FAFEF795FB89E7BAF87B
:103D6000001021B1FDF7AAFAFEF79EFF01E0FDF772
:103D7000A5FA45F625608AE72DE9F04F0646564834
:103D800089B01C460078129D17468B4610B146F24A
:103D9000AE10C9E036B147B1B7F5004F05D045F6D2
:103DA0002560C1E045F6C350BEE04D493068884209
:103DB00002D045F6C450B7E04FF000080CB1C4F88B
:103DC0000080FDF777FA96F825104B4B012281B160
:103DD0009A46D6F820C01B689C451CD1491C86F821
:103DE00025100CB1B16A2160FDF768FA45F28270C6
:103DF0009AE01968316291F8371086F8241086F835
:103E000025200CB1B16A2160FDF758FAA5F80080B1
:103E100009B0BDE8F08F390404D5FDF74FFA46F23A
:103E2000B01081E02D490B7823B1FDF747FA46F633
:103E3000635079E089460A70FDF740FA376ADAF88C
:103E4000000097F8372090F837108A421ED997F86B
:103E50003600082852D2DFE800F0041316161313B8
:103E600016163846FEF7E7FCDAF8000090F837003F
:103E700087F8370000F0BDF93846FEF77AFD05E017
:103E800087F8371002E03846FEF713FE5B4604223F
:103E900031466846FEF70BFDFDF70CFA99F8002055
:103EA000521E89F80020FDF709FAFEF7ECFAFDF73B
:103EB00001FADAF8002092F8351041B101293BD01F
:103EC000022948D003293DD046F62E613FE02DE07F
:103ED000200000008C00002064000020AC000020C6
:103EE0004D555458900000204E4F4E453F4D55546F
:103EF000455800007000002004010020FDF7DAF9A9
:103F000099F80010491E11F0FF0189F8001007D13F
:103F1000A349098821B1FDF7D1F9FEF7C5FE01E0FB
:103F2000FDF7CCF946F62D60288071E70CB1116CD5
:103F30002160A5F800800BE00CB1116C216046F205
:103F4000A91104E00CB1C4F8008047F2D9212980FE
:103F5000FDF7B4F95CE70CB1116C216045F6C25174
:103F6000F5E72DE9F05F80468E480F46144600784D
:103F700010B146F2AA1012E0B8F1000F0DD04FF4C4
:103F8000807A77B157450CD0B7F5004F09D0B7F517
:103F9000014F06D045F6256001E045F6C35010807C
:103FA00021E08149D8F80000884202D045F6C4508B
:103FB000F5E7FDF77FF9B8F8101008F1080569B1C9
:103FC000DFF8E89199F80020521C89F80020FDF7ED
:103FD00075F90026FDF773F8834610E0FDF76EF9DA
:103FE00046F2AB102080002053E628685A468168CC
:103FF0004046FEF710FD761CB6B2574502D128891F
:104000000028F2D1FDF756F999F80020521E89F8E0
:104010000020FDF753F9380401D4FEF734FA0020EC
:104020002080304635E62DE9F84F04465D481546B8
:104030008A46007810B146F20E2011E03CB108002B
:1040400008D0B1F5004F05D045F6256008E045F6EB
:10405000C35005E054492068884204D045F6C45056
:104060001080BDE8F88FFDF725F9DFF84491226A4A
:10407000D9F800108A4204D0FDF720F945F281708A
:104080006CE0DFF8288198F80020521C88F80020A6
:10409000FDF714F9FDF713F80646A06294F8250021
:1040A000DFF8FCB0401E10F0FF0084F8250016D0A9
:1040B000FDF700F998F80010491E11F0FF0188F88B
:1040C000001007D1BBF8001021B1FDF7F7F8FEF79B
:1040D000EBFD01E0FDF7F2F845F283703EE0208A47
:1040E00004F10807E0B3D9F8000094F8243090F800
:1040F00037209A4213D0FEF79EFBD9F8001094F8AF
:10410000240081F8370000F074F8D9F80000FEF7B9
:104110004AFCD9F80000274990F837000870386841
:1041200000231A468168216291F8370084F8240040
:10413000012084F8250020460096FEF769FDFDF772
:10414000B9F898F80020521E88F80020FDF7B6F85C
:104150005FEA0A4001D4FEF796F90020288080E744
:10416000FFE700262662FDF7A5F898F80010491E23
:1041700011F0FF0188F8001007D1BBF8001021B141
:10418000FDF79CF8FEF790FD01E0FDF797F82E8013
:1041900067E7094A00211160084A118001807047D1
:1041A00070000020640000204D555458AC000020E1
:1041B00004010020920000208C00002090000020CC
:1041C00000201A4A014642F82010401C0228FAD367
:1041D000704710B50024154802E02034E4B2001DF9
:1041E00001680029F9D00846FDF76FF82044C0B2F5
:1041F00010BD00F01F0241090120C2F11F029040D2
:104200000A4A52F82130034342F82130704700F047
:104210001F0241090120C2F11F029040034A52F8D7
:104220002130834342F82130704700003C000020D9
:104230000023F84AF6A14361C161116819B1816197
:104240004861106070478361FBE72DE9F041044647
:10425000F1481746884600781D4610B142F6E160E5
:104260002CE034B347B3FDF725F8EC4E3178491C08
:104270003170FDF723F8EA48C4E90008394604F133
:104280002000FFF7B4FB04F10800FEF74AFC2046CB
:10429000FFF7CEFFE3490888401C0880FDF70AF8C5
:1042A0003178491E3170FDF709F800202880BDE8FB
:1042B000F08145F6C35001E046F294501880F6E7CD
:1042C00070B5044620300546FFF779FBD6482060DC
:1042D000D6A0606000212846FFF789FB04F10800A2
:1042E000BDE87040FEF71DBCD0E9052100232AB1CE
:1042F00051B191614A61836143617047C54A116060
:1043000001B14B61836170479361F5E72DE9F05F7F
:104310000746C14814468946007810B143F2C920C7
:104320000BE047B1080045F6256B0AD0012908D0FB
:10433000A2F800B002E045F6C35010800020BDE8AE
:10434000F09FB7493868884202D045F6C450F4E778
:10435000FCF7B0FF82463D8A5FEA0900DFF8C492AD
:1043600007F10806A84608D001281FD05046FCF7E0
:10437000A5FFA4F800B04046E1E75FEA080006D0D8
:104380005046FCF79BFF47F25F102080F3E738466A
:10439000FFF7AAFFB9F800103846491EA9F8001027
:1043A000FFF78EFF5046FCF789FF2DE0DFF86CB277
:1043B00050469BF80010491C8BF80010FCF77EFF5C
:1043C000FCF77DFE824607E0306852468168384639
:1043D000FEF7CCFB6D1EADB2002DF5D13846FFF7D0
:1043E00083FFB9F800103846491EA9F80010FFF7FE
:1043F00067FFFCF75FFF9BF80020521E8BF8002040
:10440000FCF75CFFFEF73FF80020BEE770B50546FD
:1044100081480C46007810B14FF46C500BE045B168
:104420007F492868884208D045F6C4502080002083
:1044300070BD45F6C3500880F9E7FCF73BFF774EA7
:104440003178491C3170FCF739FF05F12000FFF786
:10445000B6FA0546FCF72EFF3178491E11F0FF0130
:10446000317007D17249098821B1FCF727FFFEF7A7
:104470001BFC01E0FCF722FF00202080284670BDD5
:104480002DE9F04F074689B06348DDE91254007802
:104490001E4691468B4610B146F2AE1040E047B141
:1044A00056B110000BD0B2F5004F08D045F625608C
:1044B00036E045F6C35033E046F2D52030E05849A7
:1044C0003868884202D045F6C45029E04FF0000811
:1044D0000DB1C5F80080FCF7EDFE009023462A469A
:1044E000314607F12000FFF789FA8246208840B163
:1044F0005FEA09400CD50098FCF7E0FE46F2B010E8
:104500000EE00098FCF7DAFE504609B0BDE8F08FE7
:104510004248017839B10098FCF7D0FE46F6635066
:1045200020800020F1E78146012089F800000098F2
:10453000FCF7C4FE5B460522394601A8FEF7B7F931
:10454000FCF7B8FE99F80010491E89F80010FCF736
:10455000B5FEFDF798FFFCF7ADFE364A034611683D
:1045600091F8350060B1012815D002282AD003281F
:104570004FF0000719D0A6F8008046F62E601BE029
:10458000B1F86000CF6D308015B11068006C286004
:10459000A4F8008011E00027A6F8008015B110688B
:1045A000006C286046F2A91006E04046A6F800809C
:1045B00005B1286047F2D92020801846FCF77EFE1E
:1045C0003846A2E70027A6F8008015B11068006CF5
:1045D000286045F6C250EFE72DE9F05F80460E48AF
:1045E0000F461446007810B146F2AA1026E0B8F142
:1045F000000F21D04FF4807A17B3574520D0B7F57C
:10460000004F1DD0B7F5014F1AD045F6256015E0D3
:10461000200000009800002064000020AC00002072
:10462000515545559C0000204E4F4E453F510000CE
:10463000700000200401002045F6C350108021E0E6
:104640007949D8F80000884202D045F6C450F5E711
:10465000FCF730FEB8F8101008F1080569B1DFF872
:10466000CC9199F80020521C89F80020FCF726FE16
:104670000026FCF724FD834610E0FCF71FFE46F2FF
:10468000AB10208000205AE628685A4681684046D0
:10469000FEF7C1F9761CB6B2574502D12889002829
:1046A000F2D1FCF707FE99F80020521E89F800208D
:1046B000FCF704FE380401D4FDF7E5FE002020805D
:1046C00030463CE62DE9FF4F83B01E46DDE9107A07
:1046D00093468146FCF7EEFDDFF8508198F8002004
:1046E000521C88F80020FCF7E9FDB9F8104009F1E8
:1046F000080024B1B10500D4012405682FE0F006BC
:1047000001D4002300E01023CDE9007A5A4609F1D4
:1047100020000499FFF79BF9FCF7CCFD98F80010F6
:10472000491E11F0FF0188F8001009D1404909889D
:1047300031B1FCF7C3FD07B0BDE8F04FFEF7B4BAE6
:1047400007B0BDE8F04FFCF7B9BDA9686D685B46DE
:1047500000974846049AFEF75BFA641EA4B2002C48
:10476000F3D1FCF7A7FD98F80020521E88F800202E
:10477000FCF7A4FD300401D4FDF785FE0021AAF862
:10478000001007B0C2E62DE9FF471E460C9C90467C
:10479000894605000ED04FF40070B3F5004F18D0D5
:1047A0000BDCB3B1102B14D0834212D0B6F5047FCA
:1047B0000CD10EE045F6C35011E0A6F50043103BC6
:1047C00007D0B3F5F87F04D0834202D045F62560C8
:1047D00005E0154F2868B84204D045F6C450208043
:1047E000BDE8FF87FCF76BFC1249097859B100213D
:1047F000CDE90016CDE9020443464A46294638462B
:10480000FEF75AFEECE7CDE900043346424649463E
:104810002846FFF757FFE3E7074A00211160074AE0
:10482000118001807047000051554555AC000020B3
:104830007000002064000020980000209C000020F0
:104840000023F94AF7A14361C161116819B181617F
:104850004861106070478361FBE72DE9F041044631
:10486000F2481746884600781D4610B142F6E160CE
:1048700025E014B3FCF71EFDED4E3178491C317074
:10488000FCF71CFD27620027EA486762C4E90008BC
:1048900004F10800FEF745F92046FFF7D1FFE6498D
:1048A0000888401C0880FCF705FD3178491E3170EE
:1048B000FCF704FD2F80BDE8F08145F6C350188059
:1048C000F9E7DE4940F8201B002102C040F820191A
:1048D000DBA102C0FEF725B9D0E9052100232AB1EA
:1048E00051B191614A61836143617047CE4A116061
:1048F00001B14B61836170479361F5E72DE9F05F8A
:104900000746CA4814468946007810B143F2C920C8
:104910000BE047B1080045F6256B0AD0012908D005
:10492000A2F800B002E045F6C35010800020BDE8B8
:10493000F09FC0493868884202D045F6C450F4E779
:10494000FCF7B8FC82463D8A5FEA0900DFF8E8928E
:1049500007F10806A84608D001281FD05046FCF7EA
:10496000ADFCA4F800B04046E1E75FEA080006D0DD
:104970005046FCF7A3FC47F25F102080F3E738466F
:10498000FFF7AAFFB9F800103846491EA9F8001031
:10499000FFF797FF5046FCF791FC2DE0DFF890B24F
:1049A00050469BF80010491C8BF80010FCF786FC61
:1049B000FCF785FB824607E030685246816838463E
:1049C000FEF7D4F86D1EADB2002DF5D13846FFF7D5
:1049D00083FFB9F800103846491EA9F80010FFF708
:1049E00070FFFCF767FC9BF80020521E8BF800203C
:1049F000FCF764FCFDF747FD0020BEE72DE9F0471A
:104A000006468A4888B01C460078109D91468A4622
:104A100010B146F2AE100AE03EB1100009D0B2F576
:104A2000004F06D045F6256001E045F6C3502880CA
:104A30005BE080483168814202D045F6C450F6E719
:104A4000002704B12760FCF735FCD6F82080B8F1C8
:104A5000000F0BD0A8F10108C6F820800CB1716AD4
:104A60002160346AFCF72AFC2F8054E05FEA094198
:104A700008D5FCF723FC46F2B0102880404608B069
:104A8000BDE8F0876A490A7822B1FCF717FC46F6C0
:104A90006350CCE78846012188F80010FCF70EFC33
:104AA0005346062231466846FDF701FFFCF702FC3B
:104AB00098F80010491E88F80010FCF7FFFBFDF77E
:104AC000E2FCFCF7F7FB02465F48016891F835000D
:104AD00068B1012810D002281FD0032812D046F652
:104AE0002E6028801046FCF7E9FB0020C7E70CB1D8
:104AF000086C20602F800AE00CB1086C206046F240
:104B0000A91003E004B1276047F2D920288010469D
:104B1000346AFCF7D3FB2046B1E70CB1086C206087
:104B200045F6C250F2E72DE9F05F80463F480F4658
:104B30001446007810B146F2AA1012E0B8F1000F46
:104B40000DD04FF4807A77B157450CD0B7F5004FB0
:104B500009D0B7F5014F06D045F6256001E045F6CE
:104B6000C350108021E03349D8F80000884202D0B9
:104B700045F6C450F5E7FCF79DFBB8F8101008F1B6
:104B8000080569B1DFF8A89099F80020521C89F84F
:104B90000020FCF793FB0026FCF791FA834610E017
:104BA000FCF78CFB46F2AB1020800020BFE62868A3
:104BB0005A4681684046FDF72EFF761CB6B257452F
:104BC00002D128890028F2D1FCF774FB99F8002063
:104BD000521E89F80020FCF771FB380401D4FDF760
:104BE00052FC002020803046A1E62DE9F84F1F46F8
:104BF000904689460646FCF75DFB318A06F10805BA
:104C00004FF0000B69B1DFF828A09AF80020521C81
:104C10008AF80020FCF752FB5FEA895027D52C89DF
:104C200026E013E020000000B8000020640000200F
:104C3000AC00002053454D41BC0000204E4F4E4576
:104C40003F53454D0000000004010020346A611C00
:104C500005D0641CC6E90848FCF730FB26E0FCF7E9
:104C60002DFB46F6C55038800020BDE8F88F0124A2
:104C70002D680AE0A9686D6800231A463046CDF811
:104C80000080FDF7C5FF641EA4B2002CF2D1346A87
:104C9000FCF710FB9AF80020521E8AF80020FCF75F
:104CA0000DFB5FEA094001D4FDF7EDFBA7F800B06A
:104CB0002046DAE72DE9FF410C46060015460DD0E7
:104CC0007CB1B4F5007F0CD0B4F5004F09D0B4F539
:104CD000024F06D045F6256010801AE045F6C35015
:104CE000FAE7284F3068B84202D045F6C450F3E7DF
:104CF000FCF7E5F902462448007868B100200395E6
:104D00000090CDE901420346024631463846FEF79F
:104D1000D3FB002004B0CEE504B02B46214630463C
:104D2000BDE8F04161E770B5044617480E461546E8
:104D3000007810B146F6C65006E03CB11149206833
:104D4000884206D045F6C450108070BD45F6C35069
:104D5000FAE700202880FCF7ADFA216A41B9218AE0
:104D600031B147F25F112980BDE87040FCF7A6BA67
:104D70002662F9E7054A00211160054A1180018089
:104D80007047000053454D4164000020B8000020EA
:104D9000BC0000202DE9F0410746FCF78BFAD94909
:104DA00000250D60D8490D80D8490D80D8490D6087
:104DB000D8490D60D8490D60D8490D60D8490D819A
:104DC000FCF77CFAFCF776FAD6490C6815E0FCF79C
:104DD00071FAC4F8B45044F8785F06462563A561BB
:104DE000A582E5826562A562FCF769F944F8200FA7
:104DF000A4F134008581646A3046FCF75FFA002C28
:104E0000E5D1FCF757FAC8490C6803E0FCF752FA01
:104E1000A585A469FCF752FA002CF7D101F0C4FA79
:104E200001F073FF3D80BDE8F081F8B504466946A6
:104E3000BE4801F0D9F8BDF8000028BB6A46002141
:104E4000022001F0E5FABDF80000E8B9FCF732FAFB
:104E5000B74E00253560FCF731FAB649B6480A6806
:104E600003689A4202D9B2FBF3F010B90A21B2FBEF
:104E7000F1F06A46002101F0CBFA6946AB4800F038
:104E80004AFEBDF8000008B12080F8BDFCF712FA18
:104E90009F49AA4A0D6031681160A94A0121117029
:104EA000FCF70CFA2580F8BD1CB5A34EA44D306864
:104EB000440004E020466A46002101F0A9FA28785F
:104EC0000128F7D16846FFF765FF9A483268016804
:104ED000914204D9B1FBF2F15FEA010B03D1006802
:104EE0000A21B0FBF1FB4FF47A79DFF838A242F2E5
:104EF00010764FF00008FCF7E2F80190FCF7DAF9C1
:104F00008B49904C0A682260C1F80080FCF7D6F902
:104F10008A48236802689A4228D98B48824202D282
:104F20003046012113E08948824202D248460A21D4
:104F30000DE08748824202D26420014607E085489E
:104F4000824202D20A20494601E001203146B2FBEA
:104F5000F1F15843B0FBF1F07F49301A80B208807C
:104F60006A490A88824203D2088001E07A480680B2
:104F700001F015FF0025FCF79DF9DAF8004023E069
:104F8000FCF798F9754F3978491C3970FCF796F998
:104F9000D4F89C00C4E92780FCF78CF93978491EC5
:104FA00011F0FF01397007D16D49098821B1FCF773
:104FB00085F9FDF779FE01E0FCF780F954F8A00FC0
:104FC0000544FCF777F9E469FCF778F9002CD7D1B0
:104FD000E5B15D48854202D23746012013E05B48C7
:104FE000854202D24F460A200DE05948854202D23E
:104FF0006427384607E05748854202D20A274846C8
:1050000001E001273046B5FBF0F501E0002701255E
:10501000FCF750F9DAF800401BE0D4F8A000784320
:10502000B0FBF5F080B2B04200D93046A4F88C0055
:10503000B4F88E10814201D2A4F88E0004F1AC02C3
:105040006B46111D204600F03CFFFCF733F9D4F805
:10505000BC40FCF733F9002CDFD14248017801292C
:1050600004D180F800806846FFF794FEFCF727F82B
:105070000199401A26490A68824200D208606A46AD
:105080000021584601F0C4F935E730B5284A89B007
:10509000002111602B4A344C1160284A1160284AC3
:1050A0001170304A1170226842B1304A304D136895
:1050B0002D68AB4205D246F62C6108E046F62B611E
:1050C00005E02C4B1D783F2D04D346F62A61018064
:1050D00009B030BD032505910691CDE9075026485A
:1050E000126824680068CDE90202019404911878DE
:1050F0000023AFF24B22009020A1254800F02BF9AD
:10510000E6E700007800002072000020C2000020C6
:10511000D4000020E8000020F4000020A4000020BB
:1051200094240020DC000020980000202829002082
:10513000C4000020C8730008B0730008C800002035
:10514000D0000020CC000020801A060000093D009D
:10515000005A62020084D717C0000020AC00002073
:1051600070000020BE000020B4730008BC7300086B
:10517000C473000868730008B873000875432F4FA4
:10518000532D4949492053746174205461736B0055
:10519000A02700202DE9F0410446F9480D461646A7
:1051A000007810B147F2491004E046F273200DB1C7
:1051B0003F2D02D31080BDE8F081ACB10027FCF791
:1051C00079F8DFF8C08398F80020521C88F8002096
:1051D000FCF774F894F8360008283CD2DFE800F0B9
:1051E0000C261C1C26261C1CFCF764F8E6490C68DF
:1051F000FCF764F80127E2E72046FDF71CFB84F882
:1052000037502846FEF7F5FF204617B1FDF7B1FBF2
:1052100013E0FDF7C8FB10E094F8340008280CD226
:10522000DFE800F00B0404070707070484F8375091
:1052300003E029462046FDF73CFCFCF73BF898F8D4
:105240000020521E88F80020FCF738F8FDF71BF903
:1052500000203080AFE7FCF72DF898F80010491EC9
:1052600011F0FF0188F8001007D1C849098821B161
:10527000FCF724F8FDF718FD01E0FCF71FF846F6EF
:105280002D60E6E7C24B0022C0F8B820196829B1AA
:10529000C0F8BC10C1F8B80018607047C0F8BC2056
:1052A000FAE770B50025056085604560C560056159
:1052B000456104468561B7A0C4E907506562A562EF
:1052C000E5622564E565A4F86050294604F16400B0
:1052D000FEF78DFB6567A567C4F88050A4F8885079
:1052E0000020C4F8845004EB8001401CCD6710F00E
:1052F000FF00F8D06564C4F8A450C4F8A850A563B2
:1053000084F88A50C4F8B050C4F8AC50A5874FF068
:105310000040C4E9120525656565A565A4F88C50B3
:10532000A4F88E50C4F89050C4F894503434FBF76D
:10533000C6FEC4E91905C4F8805004F8015B40209A
:1053400004F8015B04F8015B04F8810B93A020C40E
:10535000C4E9005070BD2DE9FF4F83B00446884872
:10536000DDE91785DDE910970078DDF854A0139E7C
:1053700010B147F24A102AE04CB1059850B167B11C
:105380008748006886420BD246F630601FE047F23D
:10539000AD101CE047F24F1019E046F62F6016E002
:1053A0001298B04202D346F6316010E046F2732004
:1053B000B9F1400F0BD25FEA090103D0B9F13F0FF9
:1053C00002D008E0774900E077498C4203D028807A
:1053D00007B0BDE8F08F2046FFF763FF4FF0000BEA
:1053E000A5F800B05FEAC8700AD05FEA887007D5F8
:1053F000384600215A4601E004C0491CB142FBD3A3
:105400001298CDE9006807EB8005DDE905012B4620
:105410003A4601F0DCFC0599A1620699E162049923
:10542000216284F83790C4F854A0A56020605FEA38
:105430000A003AD0A06516986762A6636060A4F877
:105440003C800020594604EB8002401CD16710F0DC
:10545000FF00F8D004F164001499FEF7C8FA204662
:1054600001F0A3FCFBF726FF464D2978491C297063
:10547000FBF724FF94F83700FEF7BBFE2046FDF74C
:1054800092FA2046FFF7FEFE48490888401C088033
:105490004748007801281AD0FBF70CFF2978491EED
:1054A00011F0FF01297003D00CE042480068C1E709
:1054B0003649098831B1FBF701FF07B0BDE8F04F6D
:1054C000FDF7F2BB07B0BDE8F04FFBF7F7BEFBF707
:1054D000F1FE2978491E2970FBF7F0FE07B0BDE800
:1054E000F04FFCF7D0BFD0E92E2100234AB181B1A3
:1054F000C2F8BC10C1F8B820C0F8BC30C0F8B83051
:105500007047234A116009B1C1F8B830C0F8BC3007
:105510007047C2F8BC30F1E770B5044618480D4634
:10552000007810B147F24E100AE01F48844202D1C1
:1055300047F24C1004E01B48844203D147F24D105F
:10554000088070BD2CB9FBF7B5FE0F490C68FBF75E
:10555000B5FEFBF7AFFE0B4E3178491C3170FBF7FF
:10556000ADFE94F8360008285BD2DFE800F0042591
:105570002929392529292046FDF75DF930E0000069
:1055800064000020AC000020040100207000002016
:10559000DC0000203F5461736B000000200000001D
:1055A000C4730008D02300200C230020E00000205A
:1055B00065000020B0000020204600F081FD0FE0D3
:1055C000204600F07DFD94F83400072808D2DFE87B
:1055D00000F007040704040404002046FDF7A6F9C0
:1055E00004F16400FEF7EBF9204601F0E4FB2046ED
:1055F000FFF779FFF9490888401E08802046FFF729
:1056000050FEFF2084F83600FBF754FE3178491E27
:105610003170FBF753FE00202880BDE87040FCF796
:1056200032BFFBF747FE3178491E11F0FF013170A0
:1056300007D1EB49098821B1FBF740FEFDF734FBA8
:1056400001E0FBF73BFE46F62D60288070BD70B58B
:105650000446E4480E46007820B14FF46C500880B0
:10566000002070BD2CB9FBF725FEDF490C68FBF765
:1056700025FEFBF71FFEDD4D2978491C2970FBF73D
:105680001DFE04F16400FEF79AF90446FBF712FED2
:105690002978491E11F0FF01297007D1D0490988E6
:1056A00021B1FBF70BFEFDF7FFFA01E0FBF706FE69
:1056B00000203080204670BD2DE9F84F8346C94850
:1056C0000A9D1C46007816460F4610B146F2AE10F1
:1056D0000AE03EB1080009D0B1F5004F06D045F60A
:1056E000256001E046F2D52028801CE04FF000093B
:1056F0000CB1C4F80090FBF7DDFDDFF8EC82009000
:105700002B46D8F80000224631466430FEF776F981
:105710008246288850B1380419D546F2B010288046
:105720000098FBF7CBFD0020BDE8F88F54B1FBF7E4
:10573000C6FC2168401AD8F8001048678A6F824278
:1057400000D288670098FBF7B9FD5046ECE7A74800
:10575000017829B10098FBF7B1FD46F66350C3E725
:105760000746012038700098FBF7A8FD00215B4632
:1057700002220846FDF79BF8FBF79CFD3978491E8D
:105780003970FBF79BFDFCF77EFEFBF793FD82462D
:10579000D8F8000090F8351091B101294FF00007BA
:1057A00026D0A6F800901CB1D8F80000006C20604C
:1057B00047F2D92028805046FBF780FD3846B3E7F2
:1057C000C76DB0F8600030807CB1D8F80000006C84
:1057D0002060FBF774FC0146D8F80000026C891ABF
:1057E0004167826F8A4200D28167A5F80090E2E7A4
:1057F0004846A6F8009004B1206046F2A910D9E707
:105800002DE9F041054677480F461446007810B15F
:1058100046F2AA1005E037B1B7F5004F03D045F6C0
:105820002560108014E0FBF745FD1DB16E49096845
:105830008D4204D1FBF742FD46F2AC1007E095F82B
:105840003410022906D0FBF739FD46F2AB10208058
:105850000020B0E4654E3178491C3170FBF72EFD15
:10586000FBF72DFC024629460020FDF7D4F8FBF794
:1058700021FD3178491E3170FBF720FD380401D439
:10588000FCF701FE00202080012094E42DE9FC5F5C
:105890009946DDE90C7592468B460446FBF70AFDF6
:1058A000524E3178491C3170FBF708FD0CB94E4857
:1058B00004680020288094F83600DFF82481082846
:1058C0003CD2DFE800F004041E1E04041E1ECDE9D5
:1058D00000754B465246594604F16400FEF7B7F88E
:1058E000FBF7E8FC3178491E11F0FF01317021D13E
:1058F000B8F80010F1B1FBF7E1FCBDE8FC5FFDF783
:10590000D3B994F834000228E1D153465A462146CF
:1059100000200097FDF77CF9FBF7CCFC3178491E9D
:105920003170FBF7CBFC5FEA09401CD4BDE8FC5F9B
:10593000FCF7A9BDBDE8FC5FFBF7C0BCFBF7BAFCF8
:105940003178491E11F0FF01317007D1B8F800100D
:1059500021B1FBF7B3FCFDF7A7F901E0FBF7AEFCC3
:1059600046F62D602880BDE8FC9F2DE9FF411C0014
:105970000A9D16460F4680460DD0102C0BD0B4F56C
:10598000004F08D0A4F50040103804D045F625603B
:105990002880BDE8FF81FBF792FB1249097859B1D5
:1059A0000021CDE90014CDE9020533463A464146CF
:1059B0000F48FDF781FDECE7CDE9000523463246AF
:1059C00039464046FFF762FFE3E770B515460446E7
:1059D00081B146F679101080002070BDE0000020F3
:1059E000700000206400002004010020AC000020B2
:1059F000544D5347FBF75EFC0CB9FD490C68E46F4E
:105A0000FBF75CFC002028802046E6E710B5044642
:105A1000FBF750FCF7490A7832B145F6DA112180DC
:105A2000FBF74CFC012010BD01220A70FBF746FC7D
:105A30000020208010BD70B51D461646044619B1E1
:105A400046F679101880C8E7FBF734FC0CB9E84932
:105A50000C68E667FBF732FC00202880BDE770B5D4
:105A60000D460446FBF726FC00262E8094F83610DF
:105A700008294AD2DFE801F0040404040A23333D74
:105A8000FBF71CFC47F25310288024E0DA4D2978FC
:105A9000491C2970FBF712FC94F88A00401E10F094
:105AA000FF0084F88A0004D184F836602046FCF7B1
:105AB000A5FFFBF7FFFB2978491E297009E094F840
:105AC0008A10491E11F0FF0184F88A1001D10121CA
:105AD00018E0FBF7F3FBBDE87040FCF7D4BC94F88A
