:020000040800F2
:10000000F8110020CD01000809050008B50400081A
:1000100005050008950300081F0D000800000000FA
:10002000000000000000000000000000CD070008F4
:10003000990300080000000051030008E1080008CF
:10004000E7010008E7010008E7010008E7010008F0
:10005000E7010008E7010008E7010008E7010008E0
:10006000E7010008E7010008E7010008E7010008D0
:10007000E7010008E7010008E7010008E7010008C0
:10008000E7010008E7010008E7010008E7010008B0
:10009000E7010008E7010008E7010008E7010008A0
:1000A000E7010008E7010008E7010008E701000890
:1000B000E7010008E7010008E7010008E701000880
:1000C000E7010008E7010008E7010008E701000870
:1000D000E7010008FD0A0008E7010008E701000841
:1000E000E7010008E7010008E7010008E701000850
:1000F000E7010008E7010008E7010008E701000840
:10010000E7010008E7010008E7010008E70100082F
:10011000E7010008E7010008E7010008E70100081F
:10012000E7010008E7010008E7010008E70100080F
:1001300000F002F800F03AF80AA090E8000C8244BF
:100140008344AAF10107DA4501D100F02FF8AFF29C
:10015000090EBAE80F0013F0010F18BFFB1A43F0A5
:1001600001031847200D0000400D0000103A24BF85
:1001700078C878C1FAD8520724BF30C830C144BF0C
:1001800004680C607047000000230024002500264E
:10019000103A28BF78C1FBD8520728BF30C148BFEA
:1001A0000B6070471FB51FBD10B510BD00F06EF895
:1001B0001146FFF7F7FF00F0E7FD00F0A0F803B4E9
:1001C000FFF7F2FF03BC00F0ACFD000009488047D8
:1001D00009480047FEE7FEE7FEE7FEE7FEE7FEE729
:1001E000FEE7FEE7FEE7FEE704480549054A064B41
:1001F000704700004D09000831010008F80B00208D
:10020000F8110020F80D0020F80D002070470000C4
:100210000FB4044910B503AA029800F009F810BC05
:100220005DF814FB2C000020704770477047704742
:10023000074B70B50D467B4400F011F80446284684
:1002400000F020F810B14FF0FF3070BD204670BDB7
:10025000330B000001694A1C02610878704700B541
:100260008FB0CDE901310021059105497944CDE9EF
:1002700003101146684600F02EF80FB000BD0000D4
:10028000E5FFFFFF007B00F080007047754600F03F
:100290003FF8AE4605006946534620F00700854604
:1002A00018B020B5FFF7A0FFBDE820404FF00006D2
:1002B0004FF000074FF000084FF0000B21F007014E
:1002C000AC46ACE8C009ACE8C009ACE8C009ACE891
:1002D000C0098D4670472DE9F04106460024D6E955
:1002E0000170F5688046304603E04146B847641C1B
:1002F0003046A8470028F8D12046BDE8F08110B567
:100300000446AFF300802046BDE81040FFF757BF1A
:1003100000487047980B0020EFF3108072B67047CA
:1003200080F31088704716484FF080510160704785
:1003300014484FF0FF010170002080F30988124833
:10034000016881F308880E484FF08051016062B661
:1003500072B6EFF3098028B1203880E8F00F0B491E
:100360000968086009480A490A680260106890E84C
:10037000F00F203080F309884EF0040E62B670470B
:1003800004ED00E022ED00E0340000203800002001
:100390003C00002000BFFEE770472DE9F041024617
:1003A00000250026002000230024002791F803C028
:1003B0000CF00F0591F803C00CF0100CBCF1000F0D
:1003C00003D091F802C04CEA050591F800C0BCF1D9
:1003D000000F31D0146800202BE04FF0010C0CFA14
:1003E00000F3B1F800C00CEA03069E4220D183005E
:1003F0004FF00F0C0CFA03F7BC4305FA03FC4CEA70
:10040000040491F803C0BCF1280F06D14FF0010C91
:100410000CFA00FCC2F814C00AE091F803C0BCF169
:10042000480F05D14FF0010C0CFA00FCC2F810C0C7
:10043000401C0828D1D31460B1F800C0BCF1FF0FF4
:1004400034DD546800202EE000F1080C4FF0010864
:1004500008FA0CF3B1F800C00CEA03069E4221D161
:1004600083004FF00F0C0CFA03F7BC4305FA03FCB2
:100470004CEA040491F803C0BCF1280F05D100F147
:10048000080C08FA0CF8C2F8148091F803C0BCF10B
:10049000480F07D100F1080C4FF0010808FA0CF8DA
:1004A000C2F81080401C0828CED35460BDE8F0810B
:1004B0000161704700BFFEE708B50121482000F048
:1004C0000BF92020ADF8000010208DF80300032068
:1004D0008DF8020069460948FFF75FFF20210748B1
:1004E000FFF7E6FF2020ADF8000069460448FFF75B
:1004F00054FF20210248FFF7DBFF08BD000C01403C
:100500000018014000BFFEE77047000070B50021F1
:1005100000230F22C47804B3154C246804F4E0646B
:10052000C4F5E064210AC1F10403CA40447804FA26
:1005300003F184781440214309010E4C0678A1553B
:10054000047804F01F050124AC4005786D11AD005E
:1005500005F1E025C5F8004109E0047804F01F0525
:100560000124AC40044D0678761145F8264070BD54
:100570000CED00E000E400E080E100E0024901430E
:10058000024A1160704700000000FA050CED00E01F
:1005900001218140024A12688A4301490A6070477A
:1005A00044000020002001E0411CC8B2202806D2EF
:1005B00001218140034A126811400029F4D0024908
:1005C0000870704744000020410000200121814054
:1005D000024A12681143014A11607047440000202A
:1005E00070B50446A4B1FFF797FE054609480078A8
:1005F000FFF7CEFF0748007800EB4000064901EB0B
:10060000800044602846FFF78BFE00F00BF800BF27
:1006100070BD00004000002018090020002000E00C
:10062000401CFDE710B5FFF777FE04460E48006852
:10063000B0B9FFF7B7FF0D4800780D490978884237
:100640000ED00A48007800EB40000A4901EB800018
:10065000094908600548007805490870FFF763FEFE
:100660002046FFF75DFE10BD4C0000204100002039
:1006700040000020180900203C00002010B500F0C8
:1006800095F90D480D4908601F220D490D4800F0ED
:10069000CBF9FFF787FF0C4800780C4908700A482F
:1006A000007800EB40000A4901EB8000094908602E
:1006B000FFF73EFE10BD00001409002034000020AA
:1006C000940B00201D06000841000020400000207F
:1006D000180900203C00002029B1064A9269024313
:1006E000044B9A6104E0034A92698243014B9A6188
:1006F000704700000010024030B5002100220024A5
:1007000000232D4D6D6805F00C0121B1042905D0A1
:10071000082923D105E0294D056022E0274D056019
:100720001FE0254D6D6805F47012234D6D6805F4CA
:100730008034022505EB92421CB9214D55430560DA
:100740000BE01D4D6D6805F400351DB11C4D554382
:10075000056002E0194D5543056002E0174D056044
:1007600000BF00BF144D6D6805F0F0010909154D7B
:100770006B5C0568DD4045600F4D6D6805F4E06118
:10078000090A104D6B5C4568DD4085600A4D6D6857
:1007900005F46051C90A0B4D6B5C4568DD40C560CE
:1007A000054D6D6805F44041890B074D6B5CC568CC
:1007B000B5FBF3F5056130BD0010024000127A0070
:1007C00000093D001400002024000020704710B5EF
:1007D00000F002F810BD00000CB500200190009060
:1007E0003348006840F480303149086000BF304829
:1007F000006800F4003000900198401C01900098BF
:1008000018B90198B0F5A06FF1D12948006800F43B
:10081000003010B10120009001E00020009000980D
:10082000012843D12348006840F0100021490860A6
:100830000846006820F0030008600846006840F0A1
:10084000020008601A484068194948600846406834
:1008500048600846406840F4806048600846406848
:1008600020F47C1048600846406840F4E810486076
:100870000846006840F08070086000BF0C480068BF
:1008800000F000700028F9D00948406820F003000B
:10089000074948600846406840F00200486000BFD1
:1008A0000348406800F00C000828F9D10CBD000096
:1008B0000010024000200240042808D14FF0E0213F
:1008C000096941F004014FF0E022116107E04FF0A7
:1008D000E021096921F004014FF0E0221161704725
:1008E00070B5002417480068401C1649086024E0D1
:1008F000FFF712FD054604EB4400134901EB8000AD
:100900004068A8B104EB440001EB800040680A385D
:1009100004EB44010C4A02EB8101486004EB440003
:10092000114601EB8000406810B92046FFF74EFEEB
:100930002846FFF7F5FC601CC4B2202CD8D3FFF783
:1009400071FE70BD480000201809002010B5134842
:10095000006840F0010011490860084640681049ED
:1009600008400E494860084600680E4908400B4997
:1009700008600846006820F4802008600846406847
:1009800020F4FE0048604FF41F008860FFF71FFF4F
:100990004FF000600449086010BD000000100240E4
:1009A0000000FFF8FFFFF6FE08ED00E010B56FF065
:1009B0000400FFF781FF0B4800680B49B0FBF1F41E
:1009C00042F2107044434FF0E020006940F0020012
:1009D0004FF0E021086108464461006940F00100E1
:1009E000086110BD0000002000127A0005E003A09D
:1009F000FFF70EFCFA20FFF7F3FDF8E7310A0000DD
:100A000005E003A0FFF704FCFA20FFF7E9FDF8E793
:100A1000320A000005E003A0FFF7FAFBFA20FFF717
:100A2000DFFDF8E7330A00002DE9F04107460E46E6
:100A30001546344624F007044FF08071201F044609
:100A40000160201F044607602949201F04460160F9
:100A50004FF01231201F044601604FF00331201F78
:100A6000044601604FF00231201F04460160491026
:100A7000201F044601600021201F044601604FF042
:100A80001131201F044601604FF01031201F044631
:100A900001604FF00931201F044601604FF008311A
:100AA000201F044601604FF00731201F04460160FB
:100AB0004FF00631201F044601604FF00531201F22
:100AC000044601604FF00431201F0446016005EB2D
:100AD0004500084941F82040002005EB4501054A42
:100AE00002EB810148602846FFF770FDBDE8F08108
:100AF000F90A00081809002000BFFEE710B540F20F
:100B000025511D4800F04AF810B31B4800F002F9C7
:100B1000C4B21A48008800F40040C8B917480088D9
:100B200000F4804060B10A2C03D0002013490880F3
:100B300020E01248008840F400401049088019E085
:100B40000D2C06D10D48008840F480400B490880E8
:100B500010E00A480088C0F30D0009490C5407480A
:100B60000088401C0549088008460088C72801DD28
:100B70000020088010BD0000003801403000002037
:100B80005006002021B1828942F40052828104E0A3
:100B900082894DF6FF731A408281704770B5024614
:100BA000002400230025002040F66A16B14200D13F
:100BB00000BFC1F3421501F01F03012606FA03F33B
:100BC000012D02D19689334006E0022D02D1168A0A
:100BD000334001E0968A33400C12012606FA04F4F1
:100BE0001688344013B10CB1012000E0002070BD24
:100BF000F0B50346002400260025002040F66A17C1
:100C0000B94200D100BF1846C1F3421401F01F06DB
:100C1000012707FA06F5012C01D10C3004E0022C63
:100C200001D1103000E014301AB107682F4307607B
:100C300002E00768AF430760F0BD00002DE9F04710
:100C400086B005460E460024A24600BFA1460027F6
:100C5000B08900B100BF2F462C8A4CF6FF700440CB
:100C6000F08804432C82AC894EF6F3100440B0881F
:100C700031890843718908430443AC81AC8A4FF63B
:100C8000FF400440B0890443AC8201A8FFF734FD63
:100C90001F48874202D1DDF810A001E0DDF80CA06A
:100CA000A88900F4004040B10AEBCA0000EB0A102A
:100CB00031684900B0FBF1F807E00AEBCA0000EB2D
:100CC0000A1031688900B0FBF1F86420B8FBF0F03D
:100CD00004012009642101FB1089A88900F4004067
:100CE00040B1322000EBC900B0FBF1F000F007008A
:100CF000044308E0322000EB09106421B0FBF1F05E
:100D000000F00F0004432C8106B0BDE8F08700001E
:100D10000038014001468888C0F30800704700BFD2
:100D2000FEE7014600BF704710B56FF00400FFF703
:100D3000C3FD0A4800680A49B0FBF1F00949087090
:100D40000846007800EB4001C1EBC0104FF6FF7180
:100D500001EAC0000449088010BD00000000002026
:100D600000127A00280000202A00002000BF054A57
:100D7000128802F04002002AF9D0C2B2014B1B1DBA
:100D80001A8070470038014010B5FFF7CDFF4FF4CF
:100D9000A060FFF7F3FB4FF4E13000F023F8FFF71A
:100DA0008BFB002209490A48FFF73EFE0122094950
:100DB0000948FFF739FE022208490948FFF734FEC7
:100DC000FFF7B2FFFFF75AFC002010BD4C020020D5
:100DD000ED0900084C040020010A00084C06002020
:100DE000150A000810B586B00446012144F204003B
:100DF000FFF772FC4FF40070ADF8140003208DF87B
:100E0000160018208DF8170005A91C48FFF7C5FA31
:100E10004FF48060ADF8140004208DF8170005A988
:100E20001648FFF7BAFA25208DF8000003208DF848
:100E300001008DF8020001208DF803006846FFF7DD
:100E400065FB01940020ADF80800ADF80A00ADF88C
:100E50000C00ADF810000C20ADF80E0001A90848F8
:100E6000FFF7ECFE012240F225510548FFF7C0FED6
:100E700001210348FFF786FE06B010BD00080140BF
:100E800000380140A40E00080000002050000000BF
:100E90006C010008F40E000850000020A8110000AA
:100EA0008801000800A24A040000000000000000C1
:100EB0000102030406070809000000000102030400
:100EC00001020304060708090204060800000000E6
:100ED0000000000000000000000000000000000012
:100EE0000000000000000000000000000000000002
:040EF00000000000FE
:0400000508000131BD
:00000001FF
